{
  "_format": "hh-sol-artifact-1",
  "contractName": "Payroll",
  "sourceName": "contracts/Payroll.sol",
  "abi": [
    {
      "inputs": [],
      "stateMutability": "nonpayable",
      "type": "constructor"
    },
    {
      "inputs": [
        {
          "internalType": "address",
          "name": "owner",
          "type": "address"
        }
      ],
      "name": "OwnableInvalidOwner",
      "type": "error"
    },
    {
      "inputs": [
        {
          "internalType": "address",
          "name": "account",
          "type": "address"
        }
      ],
      "name": "OwnableUnauthorizedAccount",
      "type": "error"
    },
    {
      "inputs": [],
      "name": "ReentrancyGuardReentrantCall",
      "type": "error"
    },
    {
      "anonymous": false,
      "inputs": [
        {
          "indexed": true,
          "internalType": "address",
          "name": "who",
          "type": "address"
        },
        {
          "indexed": false,
          "internalType": "uint256",
          "name": "ts",
          "type": "uint256"
        }
      ],
      "name": "CheckedIn",
      "type": "event"
    },
    {
      "anonymous": false,
      "inputs": [
        {
          "indexed": true,
          "internalType": "address",
          "name": "who",
          "type": "address"
        },
        {
          "indexed": false,
          "internalType": "uint256",
          "name": "ts",
          "type": "uint256"
        },
        {
          "indexed": false,
          "internalType": "uint256",
          "name": "workedHours",
          "type": "uint256"
        }
      ],
      "name": "CheckedOut",
      "type": "event"
    },
    {
      "anonymous": false,
      "inputs": [
        {
          "indexed": true,
          "internalType": "address",
          "name": "from",
          "type": "address"
        },
        {
          "indexed": false,
          "internalType": "uint256",
          "name": "amount",
          "type": "uint256"
        }
      ],
      "name": "Deposited",
      "type": "event"
    },
    {
      "anonymous": false,
      "inputs": [
        {
          "indexed": true,
          "internalType": "address",
          "name": "who",
          "type": "address"
        },
        {
          "indexed": false,
          "internalType": "string",
          "name": "name",
          "type": "string"
        },
        {
          "indexed": false,
          "internalType": "uint256",
          "name": "rate",
          "type": "uint256"
        }
      ],
      "name": "EmployeeAdded",
      "type": "event"
    },
    {
      "anonymous": false,
      "inputs": [
        {
          "indexed": true,
          "internalType": "address",
          "name": "who",
          "type": "address"
        }
      ],
      "name": "EmployeeRemoved",
      "type": "event"
    },
    {
      "anonymous": false,
      "inputs": [
        {
          "indexed": false,
          "internalType": "uint256",
          "name": "required",
          "type": "uint256"
        },
        {
          "indexed": false,
          "internalType": "uint256",
          "name": "available",
          "type": "uint256"
        }
      ],
      "name": "LowBalance",
      "type": "event"
    },
    {
      "anonymous": false,
      "inputs": [
        {
          "indexed": true,
          "internalType": "address",
          "name": "previousOwner",
          "type": "address"
        },
        {
          "indexed": true,
          "internalType": "address",
          "name": "newOwner",
          "type": "address"
        }
      ],
      "name": "OwnershipTransferred",
      "type": "event"
    },
    {
      "anonymous": false,
      "inputs": [
        {
          "indexed": false,
          "internalType": "uint256",
          "name": "totalPaid",
          "type": "uint256"
        }
      ],
      "name": "PaidAll",
      "type": "event"
    },
    {
      "anonymous": false,
      "inputs": [
        {
          "indexed": true,
          "internalType": "address",
          "name": "to",
          "type": "address"
        },
        {
          "indexed": false,
          "internalType": "uint256",
          "name": "amount",
          "type": "uint256"
        }
      ],
      "name": "SalaryPaid",
      "type": "event"
    },
    {
      "anonymous": false,
      "inputs": [
        {
          "indexed": true,
          "internalType": "address",
          "name": "who",
          "type": "address"
        },
        {
          "indexed": false,
          "internalType": "uint256",
          "name": "amount",
          "type": "uint256"
        }
      ],
      "name": "Withdrawn",
      "type": "event"
    },
    {
      "anonymous": false,
      "inputs": [
        {
          "indexed": true,
          "internalType": "address",
          "name": "who",
          "type": "address"
        },
        {
          "indexed": false,
          "internalType": "uint256",
          "name": "workHours",
          "type": "uint256"
        },
        {
          "indexed": false,
          "internalType": "uint256",
          "name": "amount",
          "type": "uint256"
        }
      ],
      "name": "WorkRecorded",
      "type": "event"
    },
    {
      "inputs": [
        {
          "internalType": "address",
          "name": "_emp",
          "type": "address"
        }
      ],
      "name": "accruedOf",
      "outputs": [
        {
          "internalType": "uint256",
          "name": "",
          "type": "uint256"
        }
      ],
      "stateMutability": "view",
      "type": "function"
    },
    {
      "inputs": [
        {
          "internalType": "address",
          "name": "_addr",
          "type": "address"
        },
        {
          "internalType": "string",
          "name": "_name",
          "type": "string"
        },
        {
          "internalType": "uint256",
          "name": "_hourlyRate",
          "type": "uint256"
        }
      ],
      "name": "addEmployee",
      "outputs": [],
      "stateMutability": "nonpayable",
      "type": "function"
    },
    {
      "inputs": [],
      "name": "allEmployees",
      "outputs": [
        {
          "internalType": "address[]",
          "name": "",
          "type": "address[]"
        }
      ],
      "stateMutability": "view",
      "type": "function"
    },
    {
      "inputs": [
        {
          "internalType": "address",
          "name": "",
          "type": "address"
        },
        {
          "internalType": "uint256",
          "name": "",
          "type": "uint256"
        }
      ],
      "name": "attendanceHistory",
      "outputs": [
        {
          "internalType": "uint256",
          "name": "timestamp",
          "type": "uint256"
        },
        {
          "internalType": "uint256",
          "name": "workedHours",
          "type": "uint256"
        }
      ],
      "stateMutability": "view",
      "type": "function"
    },
    {
      "inputs": [],
      "name": "checkIn",
      "outputs": [],
      "stateMutability": "nonpayable",
      "type": "function"
    },
    {
      "inputs": [
        {
          "internalType": "address",
          "name": "",
          "type": "address"
        }
      ],
      "name": "checkInTs",
      "outputs": [
        {
          "internalType": "uint256",
          "name": "",
          "type": "uint256"
        }
      ],
      "stateMutability": "view",
      "type": "function"
    },
    {
      "inputs": [],
      "name": "checkOut",
      "outputs": [],
      "stateMutability": "nonpayable",
      "type": "function"
    },
    {
      "inputs": [],
      "name": "contractBalance",
      "outputs": [
        {
          "internalType": "uint256",
          "name": "",
          "type": "uint256"
        }
      ],
      "stateMutability": "view",
      "type": "function"
    },
    {
      "inputs": [],
      "name": "deposit",
      "outputs": [],
      "stateMutability": "payable",
      "type": "function"
    },
    {
      "inputs": [
        {
          "internalType": "uint256",
          "name": "",
          "type": "uint256"
        }
      ],
      "name": "employeeList",
      "outputs": [
        {
          "internalType": "address",
          "name": "",
          "type": "address"
        }
      ],
      "stateMutability": "view",
      "type": "function"
    },
    {
      "inputs": [
        {
          "internalType": "address",
          "name": "",
          "type": "address"
        }
      ],
      "name": "employees",
      "outputs": [
        {
          "internalType": "string",
          "name": "name",
          "type": "string"
        },
        {
          "internalType": "uint256",
          "name": "hourlyRate",
          "type": "uint256"
        },
        {
          "internalType": "uint256",
          "name": "accrued",
          "type": "uint256"
        },
        {
          "internalType": "bool",
          "name": "exists",
          "type": "bool"
        }
      ],
      "stateMutability": "view",
      "type": "function"
    },
    {
      "inputs": [
        {
          "internalType": "address",
          "name": "_emp",
          "type": "address"
        },
        {
          "internalType": "uint256",
          "name": "start",
          "type": "uint256"
        },
        {
          "internalType": "uint256",
          "name": "limit",
          "type": "uint256"
        }
      ],
      "name": "getAttendance",
      "outputs": [
        {
          "components": [
            {
              "internalType": "uint256",
              "name": "timestamp",
              "type": "uint256"
            },
            {
              "internalType": "uint256",
              "name": "workedHours",
              "type": "uint256"
            }
          ],
          "internalType": "struct Payroll.Attendance[]",
          "name": "result",
          "type": "tuple[]"
        }
      ],
      "stateMutability": "view",
      "type": "function"
    },
    {
      "inputs": [
        {
          "internalType": "address",
          "name": "_emp",
          "type": "address"
        }
      ],
      "name": "getAttendanceCount",
      "outputs": [
        {
          "internalType": "uint256",
          "name": "",
          "type": "uint256"
        }
      ],
      "stateMutability": "view",
      "type": "function"
    },
    {
      "inputs": [],
      "name": "getEmployeeCount",
      "outputs": [
        {
          "internalType": "uint256",
          "name": "",
          "type": "uint256"
        }
      ],
      "stateMutability": "view",
      "type": "function"
    },
    {
      "inputs": [],
      "name": "getOwner",
      "outputs": [
        {
          "internalType": "address",
          "name": "",
          "type": "address"
        }
      ],
      "stateMutability": "view",
      "type": "function"
    },
    {
      "inputs": [],
      "name": "owner",
      "outputs": [
        {
          "internalType": "address",
          "name": "",
          "type": "address"
        }
      ],
      "stateMutability": "view",
      "type": "function"
    },
    {
      "inputs": [
        {
          "internalType": "uint256",
          "name": "start",
          "type": "uint256"
        },
        {
          "internalType": "uint256",
          "name": "limit",
          "type": "uint256"
        }
      ],
      "name": "payAll",
      "outputs": [],
      "stateMutability": "nonpayable",
      "type": "function"
    },
    {
      "inputs": [
        {
          "internalType": "address",
          "name": "_emp",
          "type": "address"
        }
      ],
      "name": "payEmployee",
      "outputs": [],
      "stateMutability": "nonpayable",
      "type": "function"
    },
    {
      "inputs": [
        {
          "internalType": "address",
          "name": "_addr",
          "type": "address"
        }
      ],
      "name": "removeEmployee",
      "outputs": [],
      "stateMutability": "nonpayable",
      "type": "function"
    },
    {
      "inputs": [],
      "name": "renounceOwnership",
      "outputs": [],
      "stateMutability": "nonpayable",
      "type": "function"
    },
    {
      "inputs": [
        {
          "internalType": "address",
          "name": "newOwner",
          "type": "address"
        }
      ],
      "name": "transferOwnership",
      "outputs": [],
      "stateMutability": "nonpayable",
      "type": "function"
    },
    {
      "inputs": [
        {
          "internalType": "address",
          "name": "_addr",
          "type": "address"
        },
        {
          "internalType": "uint256",
          "name": "_hourlyRate",
          "type": "uint256"
        }
      ],
      "name": "updateRate",
      "outputs": [],
      "stateMutability": "nonpayable",
      "type": "function"
    },
    {
      "inputs": [],
      "name": "withdraw",
      "outputs": [],
      "stateMutability": "nonpayable",
      "type": "function"
    },
    {
      "stateMutability": "payable",
      "type": "receive"
    }
  ],
  "bytecode": "0x608060405234801561001057600080fd5b5033600073ffffffffffffffffffffffffffffffffffffffff168173ffffffffffffffffffffffffffffffffffffffff16036100845760006040517f1e4fbdf700000000000000000000000000000000000000000000000000000000815260040161007b91906101a5565b60405180910390fd5b610093816100a060201b60201c565b50600180819055506101c0565b60008060009054906101000a900473ffffffffffffffffffffffffffffffffffffffff169050816000806101000a81548173ffffffffffffffffffffffffffffffffffffffff021916908373ffffffffffffffffffffffffffffffffffffffff1602179055508173ffffffffffffffffffffffffffffffffffffffff168173ffffffffffffffffffffffffffffffffffffffff167f8be0079c531659141344cd1fd0a4f28419497f9722a3daafe3b4186f6b6457e060405160405180910390a35050565b600073ffffffffffffffffffffffffffffffffffffffff82169050919050565b600061018f82610164565b9050919050565b61019f81610184565b82525050565b60006020820190506101ba6000830184610196565b92915050565b61341b806101cf6000396000f3fe6080604052600436106101445760003560e01c80638b7afe2e116100b6578063d06789471161006f578063d06789471461047e578063d0e30db0146104be578063d108177a146104c8578063e0b54859146104f1578063ea0c88b21461051a578063f2fde38b1461055757610199565b80638b7afe2e146103805780638da5cb5b146103ab578063b558d1ea146103d6578063c2a63e3b146103ff578063c3b2d07a1461042a578063cba5751c1461046757610199565b806331b40f781161010857806331b40f78146102815780633ccfd60b146102ac5780634384bf9d146102c35780635f4c6c5a14610300578063715018a61461033e578063893d20e81461035557610199565b806306364a8e1461019e578063183ff085146101db5780631f50ad16146101f257806328f7aa361461021b5780632d75e5261461024457610199565b36610199573373ffffffffffffffffffffffffffffffffffffffff167f2da466a7b24304f47e87fa2e1e5a81b9831ce54fec19055ce277ca2f39ba42c43460405161018f9190612323565b60405180910390a2005b600080fd5b3480156101aa57600080fd5b506101c560048036038101906101c091906123a6565b610580565b6040516101d29190612323565b60405180910390f35b3480156101e757600080fd5b506101f06105cc565b005b3480156101fe57600080fd5b50610219600480360381019061021491906123a6565b610771565b005b34801561022757600080fd5b50610242600480360381019061023d9190612464565b610795565b005b34801561025057600080fd5b5061026b600480360381019061026691906123a6565b610a8f565b6040516102789190612323565b60405180910390f35b34801561028d57600080fd5b50610296610aa7565b6040516102a39190612596565b60405180910390f35b3480156102b857600080fd5b506102c1610b35565b005b3480156102cf57600080fd5b506102ea60048036038101906102e591906125b8565b610de7565b6040516102f791906126f8565b60405180910390f35b34801561030c57600080fd5b506103276004803603810190610322919061271a565b610fe4565b60405161033592919061275a565b60405180910390f35b34801561034a57600080fd5b50610353611025565b005b34801561036157600080fd5b5061036a611039565b6040516103779190612792565b60405180910390f35b34801561038c57600080fd5b50610395611048565b6040516103a29190612323565b60405180910390f35b3480156103b757600080fd5b506103c0611050565b6040516103cd9190612792565b60405180910390f35b3480156103e257600080fd5b506103fd60048036038101906103f8919061271a565b611079565b005b34801561040b57600080fd5b5061041461119e565b6040516104219190612323565b60405180910390f35b34801561043657600080fd5b50610451600480360381019061044c91906127ad565b6111ab565b60405161045e9190612792565b60405180910390f35b34801561047357600080fd5b5061047c6111ea565b005b34801561048a57600080fd5b506104a560048036038101906104a091906123a6565b6115b7565b6040516104b59493929190612885565b60405180910390f35b6104c661167c565b005b3480156104d457600080fd5b506104ef60048036038101906104ea91906123a6565b61170f565b005b3480156104fd57600080fd5b50610518600480360381019061051391906128d1565b611a16565b005b34801561052657600080fd5b50610541600480360381019061053c91906123a6565b611dd9565b60405161054e9190612323565b60405180910390f35b34801561056357600080fd5b5061057e600480360381019061057991906123a6565b611e25565b005b6000600460008373ffffffffffffffffffffffffffffffffffffffff1673ffffffffffffffffffffffffffffffffffffffff168152602001908152602001600020805490509050919050565b600360003373ffffffffffffffffffffffffffffffffffffffff1673ffffffffffffffffffffffffffffffffffffffff16815260200190815260200160002060030160009054906101000a900460ff1661065b576040517f08c379a00000000000000000000000000000000000000000000000000000000081526004016106529061295d565b60405180910390fd5b6000600560003373ffffffffffffffffffffffffffffffffffffffff1673ffffffffffffffffffffffffffffffffffffffff16815260200190815260200160002054146106dd576040517f08c379a00000000000000000000000000000000000000000000000000000000081526004016106d4906129c9565b60405180910390fd5b42600560003373ffffffffffffffffffffffffffffffffffffffff1673ffffffffffffffffffffffffffffffffffffffff168152602001908152602001600020819055503373ffffffffffffffffffffffffffffffffffffffff167fdddb6e14f7f2101397a6526aab95e964de7f1f44ed06aa47a1c9a0e6b9924456426040516107679190612323565b60405180910390a2565b610779611eab565b610781611f32565b61078a81611f78565b61079261221b565b50565b61079d611eab565b600073ffffffffffffffffffffffffffffffffffffffff168473ffffffffffffffffffffffffffffffffffffffff160361080c576040517f08c379a000000000000000000000000000000000000000000000000000000000815260040161080390612a35565b60405180910390fd5b600360008573ffffffffffffffffffffffffffffffffffffffff1673ffffffffffffffffffffffffffffffffffffffff16815260200190815260200160002060030160009054906101000a900460ff161561089c576040517f08c379a000000000000000000000000000000000000000000000000000000000815260040161089390612aa1565b60405180910390fd5b600081116108df576040517f08c379a00000000000000000000000000000000000000000000000000000000081526004016108d690612b0d565b60405180910390fd5b604051806080016040528084848080601f016020809104026020016040519081016040528093929190818152602001838380828437600081840152601f19601f8201169050808301925050505050505081526020018281526020016000815260200160011515815250600360008673ffffffffffffffffffffffffffffffffffffffff1673ffffffffffffffffffffffffffffffffffffffff168152602001908152602001600020600082015181600001908161099c9190612d68565b50602082015181600101556040820151816002015560608201518160030160006101000a81548160ff0219169083151502179055509050506002849080600181540180825580915050600190039060005260206000200160009091909190916101000a81548173ffffffffffffffffffffffffffffffffffffffff021916908373ffffffffffffffffffffffffffffffffffffffff1602179055508373ffffffffffffffffffffffffffffffffffffffff167fee0cb94d5bca51c650dbd4f3c67a89042ab668fe15fc004da654808bea441067848484604051610a8193929190612e76565b60405180910390a250505050565b60056020528060005260406000206000915090505481565b60606002805480602002602001604051908101604052809291908181526020018280548015610b2b57602002820191906000526020600020905b8160009054906101000a900473ffffffffffffffffffffffffffffffffffffffff1673ffffffffffffffffffffffffffffffffffffffff1681526020019060010190808311610ae1575b5050505050905090565b610b3d611f32565b600360003373ffffffffffffffffffffffffffffffffffffffff1673ffffffffffffffffffffffffffffffffffffffff16815260200190815260200160002060030160009054906101000a900460ff16610bcc576040517f08c379a0000000000000000000000000000000000000000000000000000000008152600401610bc39061295d565b60405180910390fd5b6000600360003373ffffffffffffffffffffffffffffffffffffffff1673ffffffffffffffffffffffffffffffffffffffff16815260200190815260200160002060020154905060008111610c56576040517f08c379a0000000000000000000000000000000000000000000000000000000008152600401610c4d90612ef4565b60405180910390fd5b80471015610c99576040517f08c379a0000000000000000000000000000000000000000000000000000000008152600401610c9090612f60565b60405180910390fd5b6000600360003373ffffffffffffffffffffffffffffffffffffffff1673ffffffffffffffffffffffffffffffffffffffff1681526020019081526020016000206002018190555060003373ffffffffffffffffffffffffffffffffffffffff1682604051610d0790612fb1565b60006040518083038185875af1925050503d8060008114610d44576040519150601f19603f3d011682016040523d82523d6000602084013e610d49565b606091505b5050905080610d8d576040517f08c379a0000000000000000000000000000000000000000000000000000000008152600401610d8490613012565b60405180910390fd5b3373ffffffffffffffffffffffffffffffffffffffff167f7084f5476618d8e60b11ef0d7d3f06914655adb8793e28ff7f018d4c76d505d583604051610dd39190612323565b60405180910390a25050610de561221b565b565b60606000600460008673ffffffffffffffffffffffffffffffffffffffff1673ffffffffffffffffffffffffffffffffffffffff168152602001908152602001600020805480602002602001604051908101604052809291908181526020016000905b82821015610e9057838290600052602060002090600202016040518060400160405290816000820154815260200160018201548152505081526020019060010190610e4a565b50505050905080518410610efb57600067ffffffffffffffff811115610eb957610eb8612b2d565b5b604051908082528060200260200182016040528015610ef257816020015b610edf6122f0565b815260200190600190039081610ed75790505b50915050610fdd565b60008385610f099190613061565b90508151811115610f1957815190505b8481610f259190613095565b67ffffffffffffffff811115610f3e57610f3d612b2d565b5b604051908082528060200260200182016040528015610f7757816020015b610f646122f0565b815260200190600190039081610f5c5790505b50925060008590505b81811015610fd957828181518110610f9b57610f9a6130c9565b5b6020026020010151848783610fb09190613095565b81518110610fc157610fc06130c9565b5b60200260200101819052508080600101915050610f80565b5050505b9392505050565b6004602052816000526040600020818154811061100057600080fd5b9060005260206000209060020201600091509150508060000154908060010154905082565b61102d611eab565b6110376000612224565b565b6000611043611050565b905090565b600047905090565b60008060009054906101000a900473ffffffffffffffffffffffffffffffffffffffff16905090565b611081611eab565b600360008373ffffffffffffffffffffffffffffffffffffffff1673ffffffffffffffffffffffffffffffffffffffff16815260200190815260200160002060030160009054906101000a900460ff16611110576040517f08c379a00000000000000000000000000000000000000000000000000000000081526004016111079061295d565b60405180910390fd5b60008111611153576040517f08c379a000000000000000000000000000000000000000000000000000000000815260040161114a90612b0d565b60405180910390fd5b80600360008473ffffffffffffffffffffffffffffffffffffffff1673ffffffffffffffffffffffffffffffffffffffff168152602001908152602001600020600101819055505050565b6000600280549050905090565b600281815481106111bb57600080fd5b906000526020600020016000915054906101000a900473ffffffffffffffffffffffffffffffffffffffff1681565b600360003373ffffffffffffffffffffffffffffffffffffffff1673ffffffffffffffffffffffffffffffffffffffff16815260200190815260200160002060030160009054906101000a900460ff16611279576040517f08c379a00000000000000000000000000000000000000000000000000000000081526004016112709061295d565b60405180910390fd5b6000600560003373ffffffffffffffffffffffffffffffffffffffff1673ffffffffffffffffffffffffffffffffffffffff16815260200190815260200160002054905060008103611300576040517f08c379a00000000000000000000000000000000000000000000000000000000081526004016112f790613144565b60405180910390fd5b6000814261130e9190613095565b905061012c811015611355576040517f08c379a000000000000000000000000000000000000000000000000000000000815260040161134c906131b0565b60405180910390fd5b6000603c603b836113669190613061565b61137091906131ff565b90506103c0811115611382576103c090505b6000600560003373ffffffffffffffffffffffffffffffffffffffff1673ffffffffffffffffffffffffffffffffffffffff168152602001908152602001600020819055506000603c600360003373ffffffffffffffffffffffffffffffffffffffff1673ffffffffffffffffffffffffffffffffffffffff16815260200190815260200160002060010154836114199190613230565b61142391906131ff565b905080600360003373ffffffffffffffffffffffffffffffffffffffff1673ffffffffffffffffffffffffffffffffffffffff16815260200190815260200160002060020160008282546114779190613061565b92505081905550600460003373ffffffffffffffffffffffffffffffffffffffff1673ffffffffffffffffffffffffffffffffffffffff1681526020019081526020016000206040518060400160405280428152602001848152509080600181540180825580915050600190039060005260206000209060020201600090919091909150600082015181600001556020820151816001015550503373ffffffffffffffffffffffffffffffffffffffff167f21c3a29faec2af0d716e792eacc877f979d8920b2075d1f9099b87df51377366428460405161155992919061275a565b60405180910390a23373ffffffffffffffffffffffffffffffffffffffff167f0768a0b3577d48eb9ea3d2379e81e3b478f594403ec3537d3e7260c9aa1b4b5183836040516115a992919061275a565b60405180910390a250505050565b60036020528060005260406000206000915090508060000180546115da90612b8b565b80601f016020809104026020016040519081016040528092919081815260200182805461160690612b8b565b80156116535780601f1061162857610100808354040283529160200191611653565b820191906000526020600020905b81548152906001019060200180831161163657829003601f168201915b5050505050908060010154908060020154908060030160009054906101000a900460ff16905084565b600034116116bf576040517f08c379a00000000000000000000000000000000000000000000000000000000081526004016116b6906132be565b60405180910390fd5b3373ffffffffffffffffffffffffffffffffffffffff167f2da466a7b24304f47e87fa2e1e5a81b9831ce54fec19055ce277ca2f39ba42c4346040516117059190612323565b60405180910390a2565b611717611eab565b600360008273ffffffffffffffffffffffffffffffffffffffff1673ffffffffffffffffffffffffffffffffffffffff16815260200190815260200160002060030160009054906101000a900460ff166117a6576040517f08c379a000000000000000000000000000000000000000000000000000000000815260040161179d9061295d565b60405180910390fd5b60005b60028054905081101561192c578173ffffffffffffffffffffffffffffffffffffffff16600282815481106117e1576117e06130c9565b5b9060005260206000200160009054906101000a900473ffffffffffffffffffffffffffffffffffffffff1673ffffffffffffffffffffffffffffffffffffffff160361191f576002600160028054905061183b9190613095565b8154811061184c5761184b6130c9565b5b9060005260206000200160009054906101000a900473ffffffffffffffffffffffffffffffffffffffff166002828154811061188b5761188a6130c9565b5b9060005260206000200160006101000a81548173ffffffffffffffffffffffffffffffffffffffff021916908373ffffffffffffffffffffffffffffffffffffffff16021790555060028054806118e5576118e46132de565b5b6001900381819060005260206000200160006101000a81549073ffffffffffffffffffffffffffffffffffffffff0219169055905561192c565b80806001019150506117a9565b506000600360008373ffffffffffffffffffffffffffffffffffffffff1673ffffffffffffffffffffffffffffffffffffffff16815260200190815260200160002060030160006101000a81548160ff0219169083151502179055506000600360008373ffffffffffffffffffffffffffffffffffffffff1673ffffffffffffffffffffffffffffffffffffffff168152602001908152602001600020600201819055508073ffffffffffffffffffffffffffffffffffffffff167fabae6e64cb4315875c29d42347a312f5e9fce4ab564e9722b43dd78d0751135a60405160405180910390a250565b611a1e611eab565b611a26611f32565b60008111611a69576040517f08c379a0000000000000000000000000000000000000000000000000000000008152600401611a6090613359565b60405180910390fd5b60008183611a779190613061565b9050600280549050811115611a8f5760028054905090505b6000808490505b82811015611d8957600060028281548110611ab457611ab36130c9565b5b9060005260206000200160009054906101000a900473ffffffffffffffffffffffffffffffffffffffff169050600360008273ffffffffffffffffffffffffffffffffffffffff1673ffffffffffffffffffffffffffffffffffffffff16815260200190815260200160002060030160009054906101000a900460ff168015611b7f57506000600360008373ffffffffffffffffffffffffffffffffffffffff1673ffffffffffffffffffffffffffffffffffffffff16815260200190815260200160002060020154115b15611d7b57600360008273ffffffffffffffffffffffffffffffffffffffff1673ffffffffffffffffffffffffffffffffffffffff168152602001908152602001600020600201544710611d7a576000600360008373ffffffffffffffffffffffffffffffffffffffff1673ffffffffffffffffffffffffffffffffffffffff1681526020019081526020016000206002015490506000600360008473ffffffffffffffffffffffffffffffffffffffff1673ffffffffffffffffffffffffffffffffffffffff1681526020019081526020016000206002018190555060008273ffffffffffffffffffffffffffffffffffffffff1682604051611c8290612fb1565b60006040518083038185875af1925050503d8060008114611cbf576040519150601f19603f3d011682016040523d82523d6000602084013e611cc4565b606091505b505090508015611d2f578273ffffffffffffffffffffffffffffffffffffffff167fc0ebfa40c6c89654e46d7c5b0b0c1f8b5d1c65d6612894126714a7b1d6db9a3883604051611d149190612323565b60405180910390a28185611d289190613061565b9450611d77565b81600360008573ffffffffffffffffffffffffffffffffffffffff1673ffffffffffffffffffffffffffffffffffffffff168152602001908152602001600020600201819055505b50505b5b508080600101915050611a96565b506000811115611dcb577f0383136579f4be06757f1bfb03da8502c5eba35c237e4a23742060c571361a2081604051611dc29190612323565b60405180910390a15b5050611dd561221b565b5050565b6000600360008373ffffffffffffffffffffffffffffffffffffffff1673ffffffffffffffffffffffffffffffffffffffff168152602001908152602001600020600201549050919050565b611e2d611eab565b600073ffffffffffffffffffffffffffffffffffffffff168173ffffffffffffffffffffffffffffffffffffffff1603611e9f5760006040517f1e4fbdf7000000000000000000000000000000000000000000000000000000008152600401611e969190612792565b60405180910390fd5b611ea881612224565b50565b611eb36122e8565b73ffffffffffffffffffffffffffffffffffffffff16611ed1611050565b73ffffffffffffffffffffffffffffffffffffffff1614611f3057611ef46122e8565b6040517f118cdaa7000000000000000000000000000000000000000000000000000000008152600401611f279190612792565b60405180910390fd5b565b600260015403611f6e576040517f3ee5aeb500000000000000000000000000000000000000000000000000000000815260040160405180910390fd5b6002600181905550565b600360008273ffffffffffffffffffffffffffffffffffffffff1673ffffffffffffffffffffffffffffffffffffffff16815260200190815260200160002060030160009054906101000a900460ff16612007576040517f08c379a0000000000000000000000000000000000000000000000000000000008152600401611ffe9061295d565b60405180910390fd5b6000600360008373ffffffffffffffffffffffffffffffffffffffff1673ffffffffffffffffffffffffffffffffffffffff16815260200190815260200160002060020154905060008111612091576040517f08c379a0000000000000000000000000000000000000000000000000000000008152600401612088906133c5565b60405180910390fd5b804710156120d4576040517f08c379a00000000000000000000000000000000000000000000000000000000081526004016120cb90612f60565b60405180910390fd5b6000600360008473ffffffffffffffffffffffffffffffffffffffff1673ffffffffffffffffffffffffffffffffffffffff1681526020019081526020016000206002018190555060008273ffffffffffffffffffffffffffffffffffffffff168260405161214290612fb1565b60006040518083038185875af1925050503d806000811461217f576040519150601f19603f3d011682016040523d82523d6000602084013e612184565b606091505b50509050806121c8576040517f08c379a00000000000000000000000000000000000000000000000000000000081526004016121bf90613012565b60405180910390fd5b8273ffffffffffffffffffffffffffffffffffffffff167fc0ebfa40c6c89654e46d7c5b0b0c1f8b5d1c65d6612894126714a7b1d6db9a388360405161220e9190612323565b60405180910390a2505050565b60018081905550565b60008060009054906101000a900473ffffffffffffffffffffffffffffffffffffffff169050816000806101000a81548173ffffffffffffffffffffffffffffffffffffffff021916908373ffffffffffffffffffffffffffffffffffffffff1602179055508173ffffffffffffffffffffffffffffffffffffffff168173ffffffffffffffffffffffffffffffffffffffff167f8be0079c531659141344cd1fd0a4f28419497f9722a3daafe3b4186f6b6457e060405160405180910390a35050565b600033905090565b604051806040016040528060008152602001600081525090565b6000819050919050565b61231d8161230a565b82525050565b60006020820190506123386000830184612314565b92915050565b600080fd5b600080fd5b600073ffffffffffffffffffffffffffffffffffffffff82169050919050565b600061237382612348565b9050919050565b61238381612368565b811461238e57600080fd5b50565b6000813590506123a08161237a565b92915050565b6000602082840312156123bc576123bb61233e565b5b60006123ca84828501612391565b91505092915050565b600080fd5b600080fd5b600080fd5b60008083601f8401126123f8576123f76123d3565b5b8235905067ffffffffffffffff811115612415576124146123d8565b5b602083019150836001820283011115612431576124306123dd565b5b9250929050565b6124418161230a565b811461244c57600080fd5b50565b60008135905061245e81612438565b92915050565b6000806000806060858703121561247e5761247d61233e565b5b600061248c87828801612391565b945050602085013567ffffffffffffffff8111156124ad576124ac612343565b5b6124b9878288016123e2565b935093505060406124cc8782880161244f565b91505092959194509250565b600081519050919050565b600082825260208201905092915050565b6000819050602082019050919050565b61250d81612368565b82525050565b600061251f8383612504565b60208301905092915050565b6000602082019050919050565b6000612543826124d8565b61254d81856124e3565b9350612558836124f4565b8060005b838110156125895781516125708882612513565b975061257b8361252b565b92505060018101905061255c565b5085935050505092915050565b600060208201905081810360008301526125b08184612538565b905092915050565b6000806000606084860312156125d1576125d061233e565b5b60006125df86828701612391565b93505060206125f08682870161244f565b92505060406126018682870161244f565b9150509250925092565b600081519050919050565b600082825260208201905092915050565b6000819050602082019050919050565b6126408161230a565b82525050565b60408201600082015161265c6000850182612637565b50602082015161266f6020850182612637565b50505050565b60006126818383612646565b60408301905092915050565b6000602082019050919050565b60006126a58261260b565b6126af8185612616565b93506126ba83612627565b8060005b838110156126eb5781516126d28882612675565b97506126dd8361268d565b9250506001810190506126be565b5085935050505092915050565b60006020820190508181036000830152612712818461269a565b905092915050565b600080604083850312156127315761273061233e565b5b600061273f85828601612391565b92505060206127508582860161244f565b9150509250929050565b600060408201905061276f6000830185612314565b61277c6020830184612314565b9392505050565b61278c81612368565b82525050565b60006020820190506127a76000830184612783565b92915050565b6000602082840312156127c3576127c261233e565b5b60006127d18482850161244f565b91505092915050565b600081519050919050565b600082825260208201905092915050565b60005b838110156128145780820151818401526020810190506127f9565b60008484015250505050565b6000601f19601f8301169050919050565b600061283c826127da565b61284681856127e5565b93506128568185602086016127f6565b61285f81612820565b840191505092915050565b60008115159050919050565b61287f8161286a565b82525050565b6000608082019050818103600083015261289f8187612831565b90506128ae6020830186612314565b6128bb6040830185612314565b6128c86060830184612876565b95945050505050565b600080604083850312156128e8576128e761233e565b5b60006128f68582860161244f565b92505060206129078582860161244f565b9150509250929050565b7f4e6f7420656d706c6f7965650000000000000000000000000000000000000000600082015250565b6000612947600c836127e5565b915061295282612911565b602082019050919050565b600060208201905081810360008301526129768161293a565b9050919050565b7f416c726561647920636865636b656420696e0000000000000000000000000000600082015250565b60006129b36012836127e5565b91506129be8261297d565b602082019050919050565b600060208201905081810360008301526129e2816129a6565b9050919050565b7f496e76616c696420616464726573730000000000000000000000000000000000600082015250565b6000612a1f600f836127e5565b9150612a2a826129e9565b602082019050919050565b60006020820190508181036000830152612a4e81612a12565b9050919050565b7f456d706c6f796565206578697374730000000000000000000000000000000000600082015250565b6000612a8b600f836127e5565b9150612a9682612a55565b602082019050919050565b60006020820190508181036000830152612aba81612a7e565b9050919050565b7f52617465203e2030000000000000000000000000000000000000000000000000600082015250565b6000612af76008836127e5565b9150612b0282612ac1565b602082019050919050565b60006020820190508181036000830152612b2681612aea565b9050919050565b7f4e487b7100000000000000000000000000000000000000000000000000000000600052604160045260246000fd5b7f4e487b7100000000000000000000000000000000000000000000000000000000600052602260045260246000fd5b60006002820490506001821680612ba357607f821691505b602082108103612bb657612bb5612b5c565b5b50919050565b60008190508160005260206000209050919050565b60006020601f8301049050919050565b600082821b905092915050565b600060088302612c1e7fffffffffffffffffffffffffffffffffffffffffffffffffffffffffffffffff82612be1565b612c288683612be1565b95508019841693508086168417925050509392505050565b6000819050919050565b6000612c65612c60612c5b8461230a565b612c40565b61230a565b9050919050565b6000819050919050565b612c7f83612c4a565b612c93612c8b82612c6c565b848454612bee565b825550505050565b600090565b612ca8612c9b565b612cb3818484612c76565b505050565b5b81811015612cd757612ccc600082612ca0565b600181019050612cb9565b5050565b601f821115612d1c57612ced81612bbc565b612cf684612bd1565b81016020851015612d05578190505b612d19612d1185612bd1565b830182612cb8565b50505b505050565b600082821c905092915050565b6000612d3f60001984600802612d21565b1980831691505092915050565b6000612d588383612d2e565b9150826002028217905092915050565b612d71826127da565b67ffffffffffffffff811115612d8a57612d89612b2d565b5b612d948254612b8b565b612d9f828285612cdb565b600060209050601f831160018114612dd25760008415612dc0578287015190505b612dca8582612d4c565b865550612e32565b601f198416612de086612bbc565b60005b82811015612e0857848901518255600182019150602085019450602081019050612de3565b86831015612e255784890151612e21601f891682612d2e565b8355505b6001600288020188555050505b505050505050565b82818337600083830152505050565b6000612e5583856127e5565b9350612e62838584612e3a565b612e6b83612820565b840190509392505050565b60006040820190508181036000830152612e91818587612e49565b9050612ea06020830184612314565b949350505050565b7f4e6f7468696e6720746f20776974686472617700000000000000000000000000600082015250565b6000612ede6013836127e5565b9150612ee982612ea8565b602082019050919050565b60006020820190508181036000830152612f0d81612ed1565b9050919050565b7f496e73756666696369656e742066756e64730000000000000000000000000000600082015250565b6000612f4a6012836127e5565b9150612f5582612f14565b602082019050919050565b60006020820190508181036000830152612f7981612f3d565b9050919050565b600081905092915050565b50565b6000612f9b600083612f80565b9150612fa682612f8b565b600082019050919050565b6000612fbc82612f8e565b9150819050919050565b7f5472616e73666572206661696c65640000000000000000000000000000000000600082015250565b6000612ffc600f836127e5565b915061300782612fc6565b602082019050919050565b6000602082019050818103600083015261302b81612fef565b9050919050565b7f4e487b7100000000000000000000000000000000000000000000000000000000600052601160045260246000fd5b600061306c8261230a565b91506130778361230a565b925082820190508082111561308f5761308e613032565b5b92915050565b60006130a08261230a565b91506130ab8361230a565b92508282039050818111156130c3576130c2613032565b5b92915050565b7f4e487b7100000000000000000000000000000000000000000000000000000000600052603260045260246000fd5b7f4e6f7420636865636b656420696e000000000000000000000000000000000000600082015250565b600061312e600e836127e5565b9150613139826130f8565b602082019050919050565b6000602082019050818103600083015261315d81613121565b9050919050565b7f4d696e696d756d2035206d696e75746573207265717569726564000000000000600082015250565b600061319a601a836127e5565b91506131a582613164565b602082019050919050565b600060208201905081810360008301526131c98161318d565b9050919050565b7f4e487b7100000000000000000000000000000000000000000000000000000000600052601260045260246000fd5b600061320a8261230a565b91506132158361230a565b925082613225576132246131d0565b5b828204905092915050565b600061323b8261230a565b91506132468361230a565b92508282026132548161230a565b9150828204841483151761326b5761326a613032565b5b5092915050565b7f4d7573742073656e642045544800000000000000000000000000000000000000600082015250565b60006132a8600d836127e5565b91506132b382613272565b602082019050919050565b600060208201905081810360008301526132d78161329b565b9050919050565b7f4e487b7100000000000000000000000000000000000000000000000000000000600052603160045260246000fd5b7f4c696d6974203e20300000000000000000000000000000000000000000000000600082015250565b60006133436009836127e5565b915061334e8261330d565b602082019050919050565b6000602082019050818103600083015261337281613336565b9050919050565b7f4e6f7468696e6720746f20706179000000000000000000000000000000000000600082015250565b60006133af600e836127e5565b91506133ba82613379565b602082019050919050565b600060208201905081810360008301526133de816133a2565b905091905056fea2646970667358221220fdb4251717f1e76e327ce136853a5736f23c349a370e72455de77ddc4a300c7664736f6c634300081b0033",
  "linkReferences": {},
  "deployedLinkReferences": {}
}