{
  "_format": "hh-sol-artifact-1",
  "contractName": "Payroll",
  "sourceName": "contracts/Payroll.sol",
  "abi": [
    {
      "inputs": [],
      "stateMutability": "nonpayable",
      "type": "constructor"
    },
    {
      "inputs": [],
      "name": "EnforcedPause",
      "type": "error"
    },
    {
      "inputs": [],
      "name": "ExpectedPause",
      "type": "error"
    },
    {
      "inputs": [
        {
          "internalType": "address",
          "name": "owner",
          "type": "address"
        }
      ],
      "name": "OwnableInvalidOwner",
      "type": "error"
    },
    {
      "inputs": [
        {
          "internalType": "address",
          "name": "account",
          "type": "address"
        }
      ],
      "name": "OwnableUnauthorizedAccount",
      "type": "error"
    },
    {
      "inputs": [],
      "name": "ReentrancyGuardReentrantCall",
      "type": "error"
    },
    {
      "anonymous": false,
      "inputs": [
        {
          "indexed": true,
          "internalType": "address",
          "name": "who",
          "type": "address"
        },
        {
          "indexed": false,
          "internalType": "uint256",
          "name": "ts",
          "type": "uint256"
        }
      ],
      "name": "CheckedIn",
      "type": "event"
    },
    {
      "anonymous": false,
      "inputs": [
        {
          "indexed": true,
          "internalType": "address",
          "name": "who",
          "type": "address"
        },
        {
          "indexed": false,
          "internalType": "uint256",
          "name": "ts",
          "type": "uint256"
        },
        {
          "indexed": false,
          "internalType": "uint256",
          "name": "workedHours",
          "type": "uint256"
        }
      ],
      "name": "CheckedOut",
      "type": "event"
    },
    {
      "anonymous": false,
      "inputs": [
        {
          "indexed": true,
          "internalType": "address",
          "name": "from",
          "type": "address"
        },
        {
          "indexed": false,
          "internalType": "uint256",
          "name": "amount",
          "type": "uint256"
        }
      ],
      "name": "Deposited",
      "type": "event"
    },
    {
      "anonymous": false,
      "inputs": [
        {
          "indexed": false,
          "internalType": "uint256",
          "name": "amount",
          "type": "uint256"
        }
      ],
      "name": "EmergencyWithdraw",
      "type": "event"
    },
    {
      "anonymous": false,
      "inputs": [
        {
          "indexed": true,
          "internalType": "address",
          "name": "who",
          "type": "address"
        },
        {
          "indexed": false,
          "internalType": "string",
          "name": "name",
          "type": "string"
        },
        {
          "indexed": false,
          "internalType": "uint256",
          "name": "rate",
          "type": "uint256"
        }
      ],
      "name": "EmployeeAdded",
      "type": "event"
    },
    {
      "anonymous": false,
      "inputs": [
        {
          "indexed": true,
          "internalType": "address",
          "name": "who",
          "type": "address"
        }
      ],
      "name": "EmployeeRemoved",
      "type": "event"
    },
    {
      "anonymous": false,
      "inputs": [
        {
          "indexed": false,
          "internalType": "uint256",
          "name": "required",
          "type": "uint256"
        },
        {
          "indexed": false,
          "internalType": "uint256",
          "name": "available",
          "type": "uint256"
        }
      ],
      "name": "LowBalance",
      "type": "event"
    },
    {
      "anonymous": false,
      "inputs": [
        {
          "indexed": true,
          "internalType": "address",
          "name": "previousOwner",
          "type": "address"
        },
        {
          "indexed": true,
          "internalType": "address",
          "name": "newOwner",
          "type": "address"
        }
      ],
      "name": "OwnershipTransferred",
      "type": "event"
    },
    {
      "anonymous": false,
      "inputs": [
        {
          "indexed": false,
          "internalType": "uint256",
          "name": "totalPaid",
          "type": "uint256"
        }
      ],
      "name": "PaidAll",
      "type": "event"
    },
    {
      "anonymous": false,
      "inputs": [
        {
          "indexed": false,
          "internalType": "address",
          "name": "account",
          "type": "address"
        }
      ],
      "name": "Paused",
      "type": "event"
    },
    {
      "anonymous": false,
      "inputs": [
        {
          "indexed": true,
          "internalType": "address",
          "name": "to",
          "type": "address"
        },
        {
          "indexed": false,
          "internalType": "uint256",
          "name": "amount",
          "type": "uint256"
        }
      ],
      "name": "SalaryPaid",
      "type": "event"
    },
    {
      "anonymous": false,
      "inputs": [
        {
          "indexed": false,
          "internalType": "address",
          "name": "account",
          "type": "address"
        }
      ],
      "name": "Unpaused",
      "type": "event"
    },
    {
      "anonymous": false,
      "inputs": [
        {
          "indexed": true,
          "internalType": "address",
          "name": "who",
          "type": "address"
        },
        {
          "indexed": false,
          "internalType": "uint256",
          "name": "amount",
          "type": "uint256"
        }
      ],
      "name": "Withdrawn",
      "type": "event"
    },
    {
      "anonymous": false,
      "inputs": [
        {
          "indexed": true,
          "internalType": "address",
          "name": "who",
          "type": "address"
        },
        {
          "indexed": false,
          "internalType": "uint256",
          "name": "workHours",
          "type": "uint256"
        },
        {
          "indexed": false,
          "internalType": "uint256",
          "name": "amount",
          "type": "uint256"
        }
      ],
      "name": "WorkRecorded",
      "type": "event"
    },
    {
      "inputs": [],
      "name": "MAX_ACCRUED",
      "outputs": [
        {
          "internalType": "uint256",
          "name": "",
          "type": "uint256"
        }
      ],
      "stateMutability": "view",
      "type": "function"
    },
    {
      "inputs": [],
      "name": "MIN_HOURLY_RATE",
      "outputs": [
        {
          "internalType": "uint256",
          "name": "",
          "type": "uint256"
        }
      ],
      "stateMutability": "view",
      "type": "function"
    },
    {
      "inputs": [
        {
          "internalType": "address",
          "name": "_emp",
          "type": "address"
        }
      ],
      "name": "accruedOf",
      "outputs": [
        {
          "internalType": "uint256",
          "name": "",
          "type": "uint256"
        }
      ],
      "stateMutability": "view",
      "type": "function"
    },
    {
      "inputs": [
        {
          "internalType": "address",
          "name": "_addr",
          "type": "address"
        },
        {
          "internalType": "string",
          "name": "_name",
          "type": "string"
        },
        {
          "internalType": "uint256",
          "name": "_hourlyRate",
          "type": "uint256"
        }
      ],
      "name": "addEmployee",
      "outputs": [],
      "stateMutability": "nonpayable",
      "type": "function"
    },
    {
      "inputs": [],
      "name": "allEmployees",
      "outputs": [
        {
          "internalType": "address[]",
          "name": "",
          "type": "address[]"
        }
      ],
      "stateMutability": "view",
      "type": "function"
    },
    {
      "inputs": [
        {
          "internalType": "address",
          "name": "",
          "type": "address"
        },
        {
          "internalType": "uint256",
          "name": "",
          "type": "uint256"
        }
      ],
      "name": "attendanceHistory",
      "outputs": [
        {
          "internalType": "uint256",
          "name": "timestamp",
          "type": "uint256"
        },
        {
          "internalType": "uint256",
          "name": "workedHours",
          "type": "uint256"
        }
      ],
      "stateMutability": "view",
      "type": "function"
    },
    {
      "inputs": [],
      "name": "checkIn",
      "outputs": [],
      "stateMutability": "nonpayable",
      "type": "function"
    },
    {
      "inputs": [
        {
          "internalType": "address",
          "name": "",
          "type": "address"
        }
      ],
      "name": "checkInTs",
      "outputs": [
        {
          "internalType": "uint256",
          "name": "",
          "type": "uint256"
        }
      ],
      "stateMutability": "view",
      "type": "function"
    },
    {
      "inputs": [],
      "name": "checkOut",
      "outputs": [],
      "stateMutability": "nonpayable",
      "type": "function"
    },
    {
      "inputs": [],
      "name": "contractBalance",
      "outputs": [
        {
          "internalType": "uint256",
          "name": "",
          "type": "uint256"
        }
      ],
      "stateMutability": "view",
      "type": "function"
    },
    {
      "inputs": [],
      "name": "deposit",
      "outputs": [],
      "stateMutability": "payable",
      "type": "function"
    },
    {
      "inputs": [],
      "name": "emergencyWithdraw",
      "outputs": [],
      "stateMutability": "nonpayable",
      "type": "function"
    },
    {
      "inputs": [
        {
          "internalType": "uint256",
          "name": "",
          "type": "uint256"
        }
      ],
      "name": "employeeList",
      "outputs": [
        {
          "internalType": "address",
          "name": "",
          "type": "address"
        }
      ],
      "stateMutability": "view",
      "type": "function"
    },
    {
      "inputs": [
        {
          "internalType": "address",
          "name": "",
          "type": "address"
        }
      ],
      "name": "employees",
      "outputs": [
        {
          "internalType": "string",
          "name": "name",
          "type": "string"
        },
        {
          "internalType": "uint256",
          "name": "hourlyRate",
          "type": "uint256"
        },
        {
          "internalType": "uint256",
          "name": "accrued",
          "type": "uint256"
        },
        {
          "internalType": "bool",
          "name": "exists",
          "type": "bool"
        }
      ],
      "stateMutability": "view",
      "type": "function"
    },
    {
      "inputs": [
        {
          "internalType": "address",
          "name": "_emp",
          "type": "address"
        },
        {
          "internalType": "uint256",
          "name": "start",
          "type": "uint256"
        },
        {
          "internalType": "uint256",
          "name": "limit",
          "type": "uint256"
        }
      ],
      "name": "getAttendance",
      "outputs": [
        {
          "components": [
            {
              "internalType": "uint256",
              "name": "timestamp",
              "type": "uint256"
            },
            {
              "internalType": "uint256",
              "name": "workedHours",
              "type": "uint256"
            }
          ],
          "internalType": "struct Payroll.Attendance[]",
          "name": "result",
          "type": "tuple[]"
        }
      ],
      "stateMutability": "view",
      "type": "function"
    },
    {
      "inputs": [
        {
          "internalType": "address",
          "name": "_emp",
          "type": "address"
        }
      ],
      "name": "getAttendanceCount",
      "outputs": [
        {
          "internalType": "uint256",
          "name": "",
          "type": "uint256"
        }
      ],
      "stateMutability": "view",
      "type": "function"
    },
    {
      "inputs": [],
      "name": "getEmployeeCount",
      "outputs": [
        {
          "internalType": "uint256",
          "name": "",
          "type": "uint256"
        }
      ],
      "stateMutability": "view",
      "type": "function"
    },
    {
      "inputs": [],
      "name": "getOwner",
      "outputs": [
        {
          "internalType": "address",
          "name": "",
          "type": "address"
        }
      ],
      "stateMutability": "view",
      "type": "function"
    },
    {
      "inputs": [],
      "name": "owner",
      "outputs": [
        {
          "internalType": "address",
          "name": "",
          "type": "address"
        }
      ],
      "stateMutability": "view",
      "type": "function"
    },
    {
      "inputs": [],
      "name": "pause",
      "outputs": [],
      "stateMutability": "nonpayable",
      "type": "function"
    },
    {
      "inputs": [],
      "name": "paused",
      "outputs": [
        {
          "internalType": "bool",
          "name": "",
          "type": "bool"
        }
      ],
      "stateMutability": "view",
      "type": "function"
    },
    {
      "inputs": [
        {
          "internalType": "uint256",
          "name": "start",
          "type": "uint256"
        },
        {
          "internalType": "uint256",
          "name": "limit",
          "type": "uint256"
        }
      ],
      "name": "payAll",
      "outputs": [],
      "stateMutability": "nonpayable",
      "type": "function"
    },
    {
      "inputs": [
        {
          "internalType": "address",
          "name": "_emp",
          "type": "address"
        }
      ],
      "name": "payEmployee",
      "outputs": [],
      "stateMutability": "nonpayable",
      "type": "function"
    },
    {
      "inputs": [
        {
          "internalType": "address",
          "name": "_addr",
          "type": "address"
        }
      ],
      "name": "removeEmployee",
      "outputs": [],
      "stateMutability": "nonpayable",
      "type": "function"
    },
    {
      "inputs": [],
      "name": "renounceOwnership",
      "outputs": [],
      "stateMutability": "nonpayable",
      "type": "function"
    },
    {
      "inputs": [
        {
          "internalType": "address",
          "name": "newOwner",
          "type": "address"
        }
      ],
      "name": "transferOwnership",
      "outputs": [],
      "stateMutability": "nonpayable",
      "type": "function"
    },
    {
      "inputs": [],
      "name": "unpause",
      "outputs": [],
      "stateMutability": "nonpayable",
      "type": "function"
    },
    {
      "inputs": [
        {
          "internalType": "address",
          "name": "_addr",
          "type": "address"
        },
        {
          "internalType": "uint256",
          "name": "_hourlyRate",
          "type": "uint256"
        }
      ],
      "name": "updateRate",
      "outputs": [],
      "stateMutability": "nonpayable",
      "type": "function"
    },
    {
      "inputs": [],
      "name": "withdraw",
      "outputs": [],
      "stateMutability": "nonpayable",
      "type": "function"
    },
    {
      "stateMutability": "payable",
      "type": "receive"
    }
  ],
  "bytecode": "0x608060405234801561001057600080fd5b5033600073ffffffffffffffffffffffffffffffffffffffff168173ffffffffffffffffffffffffffffffffffffffff16036100845760006040517f1e4fbdf700000000000000000000000000000000000000000000000000000000815260040161007b91906101a5565b60405180910390fd5b610093816100a060201b60201c565b50600180819055506101c0565b60008060009054906101000a900473ffffffffffffffffffffffffffffffffffffffff169050816000806101000a81548173ffffffffffffffffffffffffffffffffffffffff021916908373ffffffffffffffffffffffffffffffffffffffff1602179055508173ffffffffffffffffffffffffffffffffffffffff168173ffffffffffffffffffffffffffffffffffffffff167f8be0079c531659141344cd1fd0a4f28419497f9722a3daafe3b4186f6b6457e060405160405180910390a35050565b600073ffffffffffffffffffffffffffffffffffffffff82169050919050565b600061018f82610164565b9050919050565b61019f81610184565b82525050565b60006020820190506101ba6000830184610196565b92915050565b6137cd806101cf6000396000f3fe6080604052600436106101c65760003560e01c80638456cb59116100f7578063cba5751c11610095578063db2e21bc11610064578063db2e21bc14610622578063e0b5485914610639578063ea0c88b214610662578063f2fde38b1461069f5761021b565b8063cba5751c14610598578063d0678947146105af578063d0e30db0146105ef578063d108177a146105f95761021b565b80638da5cb5b116100d15780638da5cb5b146104dc578063b558d1ea14610507578063c2a63e3b14610530578063c3b2d07a1461055b5761021b565b80638456cb591461046f578063893d20e8146104865780638b7afe2e146104b15761021b565b806331b40f78116101645780634384bf9d1161013e5780634384bf9d146103b25780635c975abb146103ef5780635f4c6c5a1461041a578063715018a6146104585761021b565b806331b40f78146103595780633ccfd60b146103845780633f4ba83a1461039b5761021b565b80631f50ad16116101a05780631f50ad161461029f57806328f7aa36146102c85780632d087d1a146102f15780632d75e5261461031c5761021b565b806306364a8e146102205780630ebbe0f21461025d578063183ff085146102885761021b565b3661021b573373ffffffffffffffffffffffffffffffffffffffff167f2da466a7b24304f47e87fa2e1e5a81b9831ce54fec19055ce277ca2f39ba42c43460405161021191906126ba565b60405180910390a2005b600080fd5b34801561022c57600080fd5b506102476004803603810190610242919061273d565b6106c8565b60405161025491906126ba565b60405180910390f35b34801561026957600080fd5b50610272610714565b60405161027f91906126ba565b60405180910390f35b34801561029457600080fd5b5061029d61071e565b005b3480156102ab57600080fd5b506102c660048036038101906102c1919061273d565b6108cb565b005b3480156102d457600080fd5b506102ef60048036038101906102ea91906127fb565b6108ef565b005b3480156102fd57600080fd5b50610306610be9565b60405161031391906126ba565b60405180910390f35b34801561032857600080fd5b50610343600480360381019061033e919061273d565b610bf7565b60405161035091906126ba565b60405180910390f35b34801561036557600080fd5b5061036e610c0f565b60405161037b919061292d565b60405180910390f35b34801561039057600080fd5b50610399610c9d565b005b3480156103a757600080fd5b506103b0610f57565b005b3480156103be57600080fd5b506103d960048036038101906103d4919061294f565b610f69565b6040516103e69190612a8f565b60405180910390f35b3480156103fb57600080fd5b50610404611166565b6040516104119190612acc565b60405180910390f35b34801561042657600080fd5b50610441600480360381019061043c9190612ae7565b61117d565b60405161044f929190612b27565b60405180910390f35b34801561046457600080fd5b5061046d6111be565b005b34801561047b57600080fd5b506104846111d2565b005b34801561049257600080fd5b5061049b6111e4565b6040516104a89190612b5f565b60405180910390f35b3480156104bd57600080fd5b506104c66111f3565b6040516104d391906126ba565b60405180910390f35b3480156104e857600080fd5b506104f16111fb565b6040516104fe9190612b5f565b60405180910390f35b34801561051357600080fd5b5061052e60048036038101906105299190612ae7565b611224565b005b34801561053c57600080fd5b50610545611349565b60405161055291906126ba565b60405180910390f35b34801561056757600080fd5b50610582600480360381019061057d9190612b7a565b611356565b60405161058f9190612b5f565b60405180910390f35b3480156105a457600080fd5b506105ad611395565b005b3480156105bb57600080fd5b506105d660048036038101906105d1919061273d565b61176a565b6040516105e69493929190612c37565b60405180910390f35b6105f761182f565b005b34801561060557600080fd5b50610620600480360381019061061b919061273d565b6118c2565b005b34801561062e57600080fd5b50610637611bc9565b005b34801561064557600080fd5b50610660600480360381019061065b9190612c83565b611c66565b005b34801561066e57600080fd5b506106896004803603810190610684919061273d565b612029565b60405161069691906126ba565b60405180910390f35b3480156106ab57600080fd5b506106c660048036038101906106c1919061273d565b612075565b005b6000600560008373ffffffffffffffffffffffffffffffffffffffff1673ffffffffffffffffffffffffffffffffffffffff168152602001908152602001600020805490509050919050565b655af3107a400081565b6107266120fb565b600460003373ffffffffffffffffffffffffffffffffffffffff1673ffffffffffffffffffffffffffffffffffffffff16815260200190815260200160002060030160009054906101000a900460ff166107b5576040517f08c379a00000000000000000000000000000000000000000000000000000000081526004016107ac90612d0f565b60405180910390fd5b6000600660003373ffffffffffffffffffffffffffffffffffffffff1673ffffffffffffffffffffffffffffffffffffffff1681526020019081526020016000205414610837576040517f08c379a000000000000000000000000000000000000000000000000000000000815260040161082e90612d7b565b60405180910390fd5b42600660003373ffffffffffffffffffffffffffffffffffffffff1673ffffffffffffffffffffffffffffffffffffffff168152602001908152602001600020819055503373ffffffffffffffffffffffffffffffffffffffff167fdddb6e14f7f2101397a6526aab95e964de7f1f44ed06aa47a1c9a0e6b9924456426040516108c191906126ba565b60405180910390a2565b6108d361213c565b6108db6121c3565b6108e481612209565b6108ec6124ac565b50565b6108f761213c565b600073ffffffffffffffffffffffffffffffffffffffff168473ffffffffffffffffffffffffffffffffffffffff1603610966576040517f08c379a000000000000000000000000000000000000000000000000000000000815260040161095d90612de7565b60405180910390fd5b600460008573ffffffffffffffffffffffffffffffffffffffff1673ffffffffffffffffffffffffffffffffffffffff16815260200190815260200160002060030160009054906101000a900460ff16156109f6576040517f08c379a00000000000000000000000000000000000000000000000000000000081526004016109ed90612e53565b60405180910390fd5b60008111610a39576040517f08c379a0000000000000000000000000000000000000000000000000000000008152600401610a3090612ebf565b60405180910390fd5b604051806080016040528084848080601f016020809104026020016040519081016040528093929190818152602001838380828437600081840152601f19601f8201169050808301925050505050505081526020018281526020016000815260200160011515815250600460008673ffffffffffffffffffffffffffffffffffffffff1673ffffffffffffffffffffffffffffffffffffffff1681526020019081526020016000206000820151816000019081610af6919061311a565b50602082015181600101556040820151816002015560608201518160030160006101000a81548160ff0219169083151502179055509050506003849080600181540180825580915050600190039060005260206000200160009091909190916101000a81548173ffffffffffffffffffffffffffffffffffffffff021916908373ffffffffffffffffffffffffffffffffffffffff1602179055508373ffffffffffffffffffffffffffffffffffffffff167fee0cb94d5bca51c650dbd4f3c67a89042ab668fe15fc004da654808bea441067848484604051610bdb93929190613228565b60405180910390a250505050565b69021e19e0c9bab240000081565b60066020528060005260406000206000915090505481565b60606003805480602002602001604051908101604052809291908181526020018280548015610c9357602002820191906000526020600020905b8160009054906101000a900473ffffffffffffffffffffffffffffffffffffffff1673ffffffffffffffffffffffffffffffffffffffff1681526020019060010190808311610c49575b5050505050905090565b610ca56121c3565b610cad6120fb565b600460003373ffffffffffffffffffffffffffffffffffffffff1673ffffffffffffffffffffffffffffffffffffffff16815260200190815260200160002060030160009054906101000a900460ff16610d3c576040517f08c379a0000000000000000000000000000000000000000000000000000000008152600401610d3390612d0f565b60405180910390fd5b6000600460003373ffffffffffffffffffffffffffffffffffffffff1673ffffffffffffffffffffffffffffffffffffffff16815260200190815260200160002060020154905060008111610dc6576040517f08c379a0000000000000000000000000000000000000000000000000000000008152600401610dbd906132a6565b60405180910390fd5b80471015610e09576040517f08c379a0000000000000000000000000000000000000000000000000000000008152600401610e0090613312565b60405180910390fd5b6000600460003373ffffffffffffffffffffffffffffffffffffffff1673ffffffffffffffffffffffffffffffffffffffff1681526020019081526020016000206002018190555060003373ffffffffffffffffffffffffffffffffffffffff1682604051610e7790613363565b60006040518083038185875af1925050503d8060008114610eb4576040519150601f19603f3d011682016040523d82523d6000602084013e610eb9565b606091505b5050905080610efd576040517f08c379a0000000000000000000000000000000000000000000000000000000008152600401610ef4906133c4565b60405180910390fd5b3373ffffffffffffffffffffffffffffffffffffffff167f7084f5476618d8e60b11ef0d7d3f06914655adb8793e28ff7f018d4c76d505d583604051610f4391906126ba565b60405180910390a25050610f556124ac565b565b610f5f61213c565b610f676124b5565b565b60606000600560008673ffffffffffffffffffffffffffffffffffffffff1673ffffffffffffffffffffffffffffffffffffffff168152602001908152602001600020805480602002602001604051908101604052809291908181526020016000905b8282101561101257838290600052602060002090600202016040518060400160405290816000820154815260200160018201548152505081526020019060010190610fcc565b5050505090508051841061107d57600067ffffffffffffffff81111561103b5761103a612edf565b5b60405190808252806020026020018201604052801561107457816020015b611061612687565b8152602001906001900390816110595790505b5091505061115f565b6000838561108b9190613413565b9050815181111561109b57815190505b84816110a79190613447565b67ffffffffffffffff8111156110c0576110bf612edf565b5b6040519080825280602002602001820160405280156110f957816020015b6110e6612687565b8152602001906001900390816110de5790505b50925060008590505b8181101561115b5782818151811061111d5761111c61347b565b5b60200260200101518487836111329190613447565b815181106111435761114261347b565b5b60200260200101819052508080600101915050611102565b5050505b9392505050565b6000600260009054906101000a900460ff16905090565b6005602052816000526040600020818154811061119957600080fd5b9060005260206000209060020201600091509150508060000154908060010154905082565b6111c661213c565b6111d06000612518565b565b6111da61213c565b6111e26125dc565b565b60006111ee6111fb565b905090565b600047905090565b60008060009054906101000a900473ffffffffffffffffffffffffffffffffffffffff16905090565b61122c61213c565b600460008373ffffffffffffffffffffffffffffffffffffffff1673ffffffffffffffffffffffffffffffffffffffff16815260200190815260200160002060030160009054906101000a900460ff166112bb576040517f08c379a00000000000000000000000000000000000000000000000000000000081526004016112b290612d0f565b60405180910390fd5b600081116112fe576040517f08c379a00000000000000000000000000000000000000000000000000000000081526004016112f590612ebf565b60405180910390fd5b80600460008473ffffffffffffffffffffffffffffffffffffffff1673ffffffffffffffffffffffffffffffffffffffff168152602001908152602001600020600101819055505050565b6000600380549050905090565b6003818154811061136657600080fd5b906000526020600020016000915054906101000a900473ffffffffffffffffffffffffffffffffffffffff1681565b61139d6120fb565b600460003373ffffffffffffffffffffffffffffffffffffffff1673ffffffffffffffffffffffffffffffffffffffff16815260200190815260200160002060030160009054906101000a900460ff1661142c576040517f08c379a000000000000000000000000000000000000000000000000000000000815260040161142390612d0f565b60405180910390fd5b6000600660003373ffffffffffffffffffffffffffffffffffffffff1673ffffffffffffffffffffffffffffffffffffffff168152602001908152602001600020549050600081036114b3576040517f08c379a00000000000000000000000000000000000000000000000000000000081526004016114aa906134f6565b60405180910390fd5b600081426114c19190613447565b905061012c811015611508576040517f08c379a00000000000000000000000000000000000000000000000000000000081526004016114ff90613562565b60405180910390fd5b6000603c603b836115199190613413565b61152391906135b1565b90506103c0811115611535576103c090505b6000603c600460003373ffffffffffffffffffffffffffffffffffffffff1673ffffffffffffffffffffffffffffffffffffffff168152602001908152602001600020600101548361158791906135e2565b61159191906135b1565b90506000600660003373ffffffffffffffffffffffffffffffffffffffff1673ffffffffffffffffffffffffffffffffffffffff1681526020019081526020016000208190555080600460003373ffffffffffffffffffffffffffffffffffffffff1673ffffffffffffffffffffffffffffffffffffffff168152602001908152602001600020600201600082825461162a9190613413565b92505081905550600560003373ffffffffffffffffffffffffffffffffffffffff1673ffffffffffffffffffffffffffffffffffffffff1681526020019081526020016000206040518060400160405280428152602001848152509080600181540180825580915050600190039060005260206000209060020201600090919091909150600082015181600001556020820151816001015550503373ffffffffffffffffffffffffffffffffffffffff167f21c3a29faec2af0d716e792eacc877f979d8920b2075d1f9099b87df51377366428460405161170c929190612b27565b60405180910390a23373ffffffffffffffffffffffffffffffffffffffff167f0768a0b3577d48eb9ea3d2379e81e3b478f594403ec3537d3e7260c9aa1b4b51838360405161175c929190612b27565b60405180910390a250505050565b600460205280600052604060002060009150905080600001805461178d90612f3d565b80601f01602080910402602001604051908101604052809291908181526020018280546117b990612f3d565b80156118065780601f106117db57610100808354040283529160200191611806565b820191906000526020600020905b8154815290600101906020018083116117e957829003601f168201915b5050505050908060010154908060020154908060030160009054906101000a900460ff16905084565b60003411611872576040517f08c379a000000000000000000000000000000000000000000000000000000000815260040161186990613670565b60405180910390fd5b3373ffffffffffffffffffffffffffffffffffffffff167f2da466a7b24304f47e87fa2e1e5a81b9831ce54fec19055ce277ca2f39ba42c4346040516118b891906126ba565b60405180910390a2565b6118ca61213c565b600460008273ffffffffffffffffffffffffffffffffffffffff1673ffffffffffffffffffffffffffffffffffffffff16815260200190815260200160002060030160009054906101000a900460ff16611959576040517f08c379a000000000000000000000000000000000000000000000000000000000815260040161195090612d0f565b60405180910390fd5b60005b600380549050811015611adf578173ffffffffffffffffffffffffffffffffffffffff16600382815481106119945761199361347b565b5b9060005260206000200160009054906101000a900473ffffffffffffffffffffffffffffffffffffffff1673ffffffffffffffffffffffffffffffffffffffff1603611ad257600360016003805490506119ee9190613447565b815481106119ff576119fe61347b565b5b9060005260206000200160009054906101000a900473ffffffffffffffffffffffffffffffffffffffff1660038281548110611a3e57611a3d61347b565b5b9060005260206000200160006101000a81548173ffffffffffffffffffffffffffffffffffffffff021916908373ffffffffffffffffffffffffffffffffffffffff1602179055506003805480611a9857611a97613690565b5b6001900381819060005260206000200160006101000a81549073ffffffffffffffffffffffffffffffffffffffff02191690559055611adf565b808060010191505061195c565b506000600460008373ffffffffffffffffffffffffffffffffffffffff1673ffffffffffffffffffffffffffffffffffffffff16815260200190815260200160002060030160006101000a81548160ff0219169083151502179055506000600460008373ffffffffffffffffffffffffffffffffffffffff1673ffffffffffffffffffffffffffffffffffffffff168152602001908152602001600020600201819055508073ffffffffffffffffffffffffffffffffffffffff167fabae6e64cb4315875c29d42347a312f5e9fce4ab564e9722b43dd78d0751135a60405160405180910390a250565b611bd161213c565b611bd961263f565b60004790507f99d7f8b71cfb9126984f7a5eed3a40e64a8959e9b0e442221546fb04ec6a489c81604051611c0d91906126ba565b60405180910390a1611c1d6111fb565b73ffffffffffffffffffffffffffffffffffffffff166108fc829081150290604051600060405180830381858888f19350505050158015611c62573d6000803e3d6000fd5b5050565b611c6e61213c565b611c766121c3565b60008111611cb9576040517f08c379a0000000000000000000000000000000000000000000000000000000008152600401611cb09061370b565b60405180910390fd5b60008183611cc79190613413565b9050600380549050811115611cdf5760038054905090505b6000808490505b82811015611fd957600060038281548110611d0457611d0361347b565b5b9060005260206000200160009054906101000a900473ffffffffffffffffffffffffffffffffffffffff169050600460008273ffffffffffffffffffffffffffffffffffffffff1673ffffffffffffffffffffffffffffffffffffffff16815260200190815260200160002060030160009054906101000a900460ff168015611dcf57506000600460008373ffffffffffffffffffffffffffffffffffffffff1673ffffffffffffffffffffffffffffffffffffffff16815260200190815260200160002060020154115b15611fcb57600460008273ffffffffffffffffffffffffffffffffffffffff1673ffffffffffffffffffffffffffffffffffffffff168152602001908152602001600020600201544710611fca576000600460008373ffffffffffffffffffffffffffffffffffffffff1673ffffffffffffffffffffffffffffffffffffffff1681526020019081526020016000206002015490506000600460008473ffffffffffffffffffffffffffffffffffffffff1673ffffffffffffffffffffffffffffffffffffffff1681526020019081526020016000206002018190555060008273ffffffffffffffffffffffffffffffffffffffff1682604051611ed290613363565b60006040518083038185875af1925050503d8060008114611f0f576040519150601f19603f3d011682016040523d82523d6000602084013e611f14565b606091505b505090508015611f7f578273ffffffffffffffffffffffffffffffffffffffff167fc0ebfa40c6c89654e46d7c5b0b0c1f8b5d1c65d6612894126714a7b1d6db9a3883604051611f6491906126ba565b60405180910390a28185611f789190613413565b9450611fc7565b81600460008573ffffffffffffffffffffffffffffffffffffffff1673ffffffffffffffffffffffffffffffffffffffff168152602001908152602001600020600201819055505b50505b5b508080600101915050611ce6565b50600081111561201b577f0383136579f4be06757f1bfb03da8502c5eba35c237e4a23742060c571361a208160405161201291906126ba565b60405180910390a15b50506120256124ac565b5050565b6000600460008373ffffffffffffffffffffffffffffffffffffffff1673ffffffffffffffffffffffffffffffffffffffff168152602001908152602001600020600201549050919050565b61207d61213c565b600073ffffffffffffffffffffffffffffffffffffffff168173ffffffffffffffffffffffffffffffffffffffff16036120ef5760006040517f1e4fbdf70000000000000000000000000000000000000000000000000000000081526004016120e69190612b5f565b60405180910390fd5b6120f881612518565b50565b612103611166565b1561213a576040517fd93c066500000000000000000000000000000000000000000000000000000000815260040160405180910390fd5b565b61214461267f565b73ffffffffffffffffffffffffffffffffffffffff166121626111fb565b73ffffffffffffffffffffffffffffffffffffffff16146121c15761218561267f565b6040517f118cdaa70000000000000000000000000000000000000000000000000000000081526004016121b89190612b5f565b60405180910390fd5b565b6002600154036121ff576040517f3ee5aeb500000000000000000000000000000000000000000000000000000000815260040160405180910390fd5b6002600181905550565b600460008273ffffffffffffffffffffffffffffffffffffffff1673ffffffffffffffffffffffffffffffffffffffff16815260200190815260200160002060030160009054906101000a900460ff16612298576040517f08c379a000000000000000000000000000000000000000000000000000000000815260040161228f90612d0f565b60405180910390fd5b6000600460008373ffffffffffffffffffffffffffffffffffffffff1673ffffffffffffffffffffffffffffffffffffffff16815260200190815260200160002060020154905060008111612322576040517f08c379a000000000000000000000000000000000000000000000000000000000815260040161231990613777565b60405180910390fd5b80471015612365576040517f08c379a000000000000000000000000000000000000000000000000000000000815260040161235c90613312565b60405180910390fd5b6000600460008473ffffffffffffffffffffffffffffffffffffffff1673ffffffffffffffffffffffffffffffffffffffff1681526020019081526020016000206002018190555060008273ffffffffffffffffffffffffffffffffffffffff16826040516123d390613363565b60006040518083038185875af1925050503d8060008114612410576040519150601f19603f3d011682016040523d82523d6000602084013e612415565b606091505b5050905080612459576040517f08c379a0000000000000000000000000000000000000000000000000000000008152600401612450906133c4565b60405180910390fd5b8273ffffffffffffffffffffffffffffffffffffffff167fc0ebfa40c6c89654e46d7c5b0b0c1f8b5d1c65d6612894126714a7b1d6db9a388360405161249f91906126ba565b60405180910390a2505050565b60018081905550565b6124bd61263f565b6000600260006101000a81548160ff0219169083151502179055507f5db9ee0a495bf2e6ff9c91a7834c1ba4fdd244a5e8aa4e537bd38aeae4b073aa61250161267f565b60405161250e9190612b5f565b60405180910390a1565b60008060009054906101000a900473ffffffffffffffffffffffffffffffffffffffff169050816000806101000a81548173ffffffffffffffffffffffffffffffffffffffff021916908373ffffffffffffffffffffffffffffffffffffffff1602179055508173ffffffffffffffffffffffffffffffffffffffff168173ffffffffffffffffffffffffffffffffffffffff167f8be0079c531659141344cd1fd0a4f28419497f9722a3daafe3b4186f6b6457e060405160405180910390a35050565b6125e46120fb565b6001600260006101000a81548160ff0219169083151502179055507f62e78cea01bee320cd4e420270b5ea74000d11b0c9f74754ebdbfc544b05a25861262861267f565b6040516126359190612b5f565b60405180910390a1565b612647611166565b61267d576040517f8dfc202b00000000000000000000000000000000000000000000000000000000815260040160405180910390fd5b565b600033905090565b604051806040016040528060008152602001600081525090565b6000819050919050565b6126b4816126a1565b82525050565b60006020820190506126cf60008301846126ab565b92915050565b600080fd5b600080fd5b600073ffffffffffffffffffffffffffffffffffffffff82169050919050565b600061270a826126df565b9050919050565b61271a816126ff565b811461272557600080fd5b50565b60008135905061273781612711565b92915050565b600060208284031215612753576127526126d5565b5b600061276184828501612728565b91505092915050565b600080fd5b600080fd5b600080fd5b60008083601f84011261278f5761278e61276a565b5b8235905067ffffffffffffffff8111156127ac576127ab61276f565b5b6020830191508360018202830111156127c8576127c7612774565b5b9250929050565b6127d8816126a1565b81146127e357600080fd5b50565b6000813590506127f5816127cf565b92915050565b60008060008060608587031215612815576128146126d5565b5b600061282387828801612728565b945050602085013567ffffffffffffffff811115612844576128436126da565b5b61285087828801612779565b93509350506040612863878288016127e6565b91505092959194509250565b600081519050919050565b600082825260208201905092915050565b6000819050602082019050919050565b6128a4816126ff565b82525050565b60006128b6838361289b565b60208301905092915050565b6000602082019050919050565b60006128da8261286f565b6128e4818561287a565b93506128ef8361288b565b8060005b8381101561292057815161290788826128aa565b9750612912836128c2565b9250506001810190506128f3565b5085935050505092915050565b6000602082019050818103600083015261294781846128cf565b905092915050565b600080600060608486031215612968576129676126d5565b5b600061297686828701612728565b9350506020612987868287016127e6565b9250506040612998868287016127e6565b9150509250925092565b600081519050919050565b600082825260208201905092915050565b6000819050602082019050919050565b6129d7816126a1565b82525050565b6040820160008201516129f360008501826129ce565b506020820151612a0660208501826129ce565b50505050565b6000612a1883836129dd565b60408301905092915050565b6000602082019050919050565b6000612a3c826129a2565b612a4681856129ad565b9350612a51836129be565b8060005b83811015612a82578151612a698882612a0c565b9750612a7483612a24565b925050600181019050612a55565b5085935050505092915050565b60006020820190508181036000830152612aa98184612a31565b905092915050565b60008115159050919050565b612ac681612ab1565b82525050565b6000602082019050612ae16000830184612abd565b92915050565b60008060408385031215612afe57612afd6126d5565b5b6000612b0c85828601612728565b9250506020612b1d858286016127e6565b9150509250929050565b6000604082019050612b3c60008301856126ab565b612b4960208301846126ab565b9392505050565b612b59816126ff565b82525050565b6000602082019050612b746000830184612b50565b92915050565b600060208284031215612b9057612b8f6126d5565b5b6000612b9e848285016127e6565b91505092915050565b600081519050919050565b600082825260208201905092915050565b60005b83811015612be1578082015181840152602081019050612bc6565b60008484015250505050565b6000601f19601f8301169050919050565b6000612c0982612ba7565b612c138185612bb2565b9350612c23818560208601612bc3565b612c2c81612bed565b840191505092915050565b60006080820190508181036000830152612c518187612bfe565b9050612c6060208301866126ab565b612c6d60408301856126ab565b612c7a6060830184612abd565b95945050505050565b60008060408385031215612c9a57612c996126d5565b5b6000612ca8858286016127e6565b9250506020612cb9858286016127e6565b9150509250929050565b7f4e6f7420656d706c6f7965650000000000000000000000000000000000000000600082015250565b6000612cf9600c83612bb2565b9150612d0482612cc3565b602082019050919050565b60006020820190508181036000830152612d2881612cec565b9050919050565b7f416c726561647920636865636b656420696e0000000000000000000000000000600082015250565b6000612d65601283612bb2565b9150612d7082612d2f565b602082019050919050565b60006020820190508181036000830152612d9481612d58565b9050919050565b7f496e76616c696420616464726573730000000000000000000000000000000000600082015250565b6000612dd1600f83612bb2565b9150612ddc82612d9b565b602082019050919050565b60006020820190508181036000830152612e0081612dc4565b9050919050565b7f456d706c6f796565206578697374730000000000000000000000000000000000600082015250565b6000612e3d600f83612bb2565b9150612e4882612e07565b602082019050919050565b60006020820190508181036000830152612e6c81612e30565b9050919050565b7f52617465203e2030000000000000000000000000000000000000000000000000600082015250565b6000612ea9600883612bb2565b9150612eb482612e73565b602082019050919050565b60006020820190508181036000830152612ed881612e9c565b9050919050565b7f4e487b7100000000000000000000000000000000000000000000000000000000600052604160045260246000fd5b7f4e487b7100000000000000000000000000000000000000000000000000000000600052602260045260246000fd5b60006002820490506001821680612f5557607f821691505b602082108103612f6857612f67612f0e565b5b50919050565b60008190508160005260206000209050919050565b60006020601f8301049050919050565b600082821b905092915050565b600060088302612fd07fffffffffffffffffffffffffffffffffffffffffffffffffffffffffffffffff82612f93565b612fda8683612f93565b95508019841693508086168417925050509392505050565b6000819050919050565b600061301761301261300d846126a1565b612ff2565b6126a1565b9050919050565b6000819050919050565b61303183612ffc565b61304561303d8261301e565b848454612fa0565b825550505050565b600090565b61305a61304d565b613065818484613028565b505050565b5b818110156130895761307e600082613052565b60018101905061306b565b5050565b601f8211156130ce5761309f81612f6e565b6130a884612f83565b810160208510156130b7578190505b6130cb6130c385612f83565b83018261306a565b50505b505050565b600082821c905092915050565b60006130f1600019846008026130d3565b1980831691505092915050565b600061310a83836130e0565b9150826002028217905092915050565b61312382612ba7565b67ffffffffffffffff81111561313c5761313b612edf565b5b6131468254612f3d565b61315182828561308d565b600060209050601f8311600181146131845760008415613172578287015190505b61317c85826130fe565b8655506131e4565b601f19841661319286612f6e565b60005b828110156131ba57848901518255600182019150602085019450602081019050613195565b868310156131d757848901516131d3601f8916826130e0565b8355505b6001600288020188555050505b505050505050565b82818337600083830152505050565b60006132078385612bb2565b93506132148385846131ec565b61321d83612bed565b840190509392505050565b600060408201905081810360008301526132438185876131fb565b905061325260208301846126ab565b949350505050565b7f4e6f7468696e6720746f20776974686472617700000000000000000000000000600082015250565b6000613290601383612bb2565b915061329b8261325a565b602082019050919050565b600060208201905081810360008301526132bf81613283565b9050919050565b7f496e73756666696369656e742066756e64730000000000000000000000000000600082015250565b60006132fc601283612bb2565b9150613307826132c6565b602082019050919050565b6000602082019050818103600083015261332b816132ef565b9050919050565b600081905092915050565b50565b600061334d600083613332565b91506133588261333d565b600082019050919050565b600061336e82613340565b9150819050919050565b7f5472616e73666572206661696c65640000000000000000000000000000000000600082015250565b60006133ae600f83612bb2565b91506133b982613378565b602082019050919050565b600060208201905081810360008301526133dd816133a1565b9050919050565b7f4e487b7100000000000000000000000000000000000000000000000000000000600052601160045260246000fd5b600061341e826126a1565b9150613429836126a1565b9250828201905080821115613441576134406133e4565b5b92915050565b6000613452826126a1565b915061345d836126a1565b9250828203905081811115613475576134746133e4565b5b92915050565b7f4e487b7100000000000000000000000000000000000000000000000000000000600052603260045260246000fd5b7f4e6f7420636865636b656420696e000000000000000000000000000000000000600082015250565b60006134e0600e83612bb2565b91506134eb826134aa565b602082019050919050565b6000602082019050818103600083015261350f816134d3565b9050919050565b7f4d696e696d756d2035206d696e75746573207265717569726564000000000000600082015250565b600061354c601a83612bb2565b915061355782613516565b602082019050919050565b6000602082019050818103600083015261357b8161353f565b9050919050565b7f4e487b7100000000000000000000000000000000000000000000000000000000600052601260045260246000fd5b60006135bc826126a1565b91506135c7836126a1565b9250826135d7576135d6613582565b5b828204905092915050565b60006135ed826126a1565b91506135f8836126a1565b9250828202613606816126a1565b9150828204841483151761361d5761361c6133e4565b5b5092915050565b7f4d7573742073656e642045544800000000000000000000000000000000000000600082015250565b600061365a600d83612bb2565b915061366582613624565b602082019050919050565b600060208201905081810360008301526136898161364d565b9050919050565b7f4e487b7100000000000000000000000000000000000000000000000000000000600052603160045260246000fd5b7f4c696d6974203e20300000000000000000000000000000000000000000000000600082015250565b60006136f5600983612bb2565b9150613700826136bf565b602082019050919050565b60006020820190508181036000830152613724816136e8565b9050919050565b7f4e6f7468696e6720746f20706179000000000000000000000000000000000000600082015250565b6000613761600e83612bb2565b915061376c8261372b565b602082019050919050565b6000602082019050818103600083015261379081613754565b905091905056fea26469706673582212203a44c88d5ce963d40bfe92304a5d0cc85c4e9f2b947f8ade76e902dbd2be18f264736f6c634300081b0033",
  "linkReferences": {},
  "deployedLinkReferences": {}
}