{
  "_format": "hh-sol-artifact-1",
  "contractName": "Payroll",
  "sourceName": "contracts/Payroll.sol",
  "abi": [
    {
      "inputs": [],
      "stateMutability": "nonpayable",
      "type": "constructor"
    },
    {
      "inputs": [
        {
          "internalType": "address",
          "name": "owner",
          "type": "address"
        }
      ],
      "name": "OwnableInvalidOwner",
      "type": "error"
    },
    {
      "inputs": [
        {
          "internalType": "address",
          "name": "account",
          "type": "address"
        }
      ],
      "name": "OwnableUnauthorizedAccount",
      "type": "error"
    },
    {
      "inputs": [],
      "name": "ReentrancyGuardReentrantCall",
      "type": "error"
    },
    {
      "anonymous": false,
      "inputs": [
        {
          "indexed": true,
          "internalType": "address",
          "name": "who",
          "type": "address"
        },
        {
          "indexed": false,
          "internalType": "uint256",
          "name": "ts",
          "type": "uint256"
        }
      ],
      "name": "CheckedIn",
      "type": "event"
    },
    {
      "anonymous": false,
      "inputs": [
        {
          "indexed": true,
          "internalType": "address",
          "name": "who",
          "type": "address"
        },
        {
          "indexed": false,
          "internalType": "uint256",
          "name": "ts",
          "type": "uint256"
        },
        {
          "indexed": false,
          "internalType": "uint256",
          "name": "workedHours",
          "type": "uint256"
        }
      ],
      "name": "CheckedOut",
      "type": "event"
    },
    {
      "anonymous": false,
      "inputs": [
        {
          "indexed": true,
          "internalType": "address",
          "name": "from",
          "type": "address"
        },
        {
          "indexed": false,
          "internalType": "uint256",
          "name": "amount",
          "type": "uint256"
        }
      ],
      "name": "Deposited",
      "type": "event"
    },
    {
      "anonymous": false,
      "inputs": [
        {
          "indexed": true,
          "internalType": "address",
          "name": "who",
          "type": "address"
        },
        {
          "indexed": false,
          "internalType": "string",
          "name": "name",
          "type": "string"
        },
        {
          "indexed": false,
          "internalType": "uint256",
          "name": "rate",
          "type": "uint256"
        }
      ],
      "name": "EmployeeAdded",
      "type": "event"
    },
    {
      "anonymous": false,
      "inputs": [
        {
          "indexed": true,
          "internalType": "address",
          "name": "who",
          "type": "address"
        }
      ],
      "name": "EmployeeRemoved",
      "type": "event"
    },
    {
      "anonymous": false,
      "inputs": [
        {
          "indexed": false,
          "internalType": "uint256",
          "name": "required",
          "type": "uint256"
        },
        {
          "indexed": false,
          "internalType": "uint256",
          "name": "available",
          "type": "uint256"
        }
      ],
      "name": "LowBalance",
      "type": "event"
    },
    {
      "anonymous": false,
      "inputs": [
        {
          "indexed": true,
          "internalType": "address",
          "name": "previousOwner",
          "type": "address"
        },
        {
          "indexed": true,
          "internalType": "address",
          "name": "newOwner",
          "type": "address"
        }
      ],
      "name": "OwnershipTransferred",
      "type": "event"
    },
    {
      "anonymous": false,
      "inputs": [
        {
          "indexed": false,
          "internalType": "uint256",
          "name": "totalPaid",
          "type": "uint256"
        }
      ],
      "name": "PaidAll",
      "type": "event"
    },
    {
      "anonymous": false,
      "inputs": [
        {
          "indexed": true,
          "internalType": "address",
          "name": "to",
          "type": "address"
        },
        {
          "indexed": false,
          "internalType": "uint256",
          "name": "amount",
          "type": "uint256"
        }
      ],
      "name": "SalaryPaid",
      "type": "event"
    },
    {
      "anonymous": false,
      "inputs": [
        {
          "indexed": true,
          "internalType": "address",
          "name": "who",
          "type": "address"
        },
        {
          "indexed": false,
          "internalType": "uint256",
          "name": "amount",
          "type": "uint256"
        }
      ],
      "name": "Withdrawn",
      "type": "event"
    },
    {
      "anonymous": false,
      "inputs": [
        {
          "indexed": true,
          "internalType": "address",
          "name": "who",
          "type": "address"
        },
        {
          "indexed": false,
          "internalType": "uint256",
          "name": "workHours",
          "type": "uint256"
        },
        {
          "indexed": false,
          "internalType": "uint256",
          "name": "amount",
          "type": "uint256"
        }
      ],
      "name": "WorkRecorded",
      "type": "event"
    },
    {
      "inputs": [
        {
          "internalType": "address",
          "name": "_emp",
          "type": "address"
        }
      ],
      "name": "accruedOf",
      "outputs": [
        {
          "internalType": "uint256",
          "name": "",
          "type": "uint256"
        }
      ],
      "stateMutability": "view",
      "type": "function"
    },
    {
      "inputs": [
        {
          "internalType": "address",
          "name": "_addr",
          "type": "address"
        },
        {
          "internalType": "string",
          "name": "_name",
          "type": "string"
        },
        {
          "internalType": "uint256",
          "name": "_hourlyRate",
          "type": "uint256"
        }
      ],
      "name": "addEmployee",
      "outputs": [],
      "stateMutability": "nonpayable",
      "type": "function"
    },
    {
      "inputs": [],
      "name": "allEmployees",
      "outputs": [
        {
          "internalType": "address[]",
          "name": "",
          "type": "address[]"
        }
      ],
      "stateMutability": "view",
      "type": "function"
    },
    {
      "inputs": [
        {
          "internalType": "address",
          "name": "",
          "type": "address"
        },
        {
          "internalType": "uint256",
          "name": "",
          "type": "uint256"
        }
      ],
      "name": "attendanceHistory",
      "outputs": [
        {
          "internalType": "uint256",
          "name": "timestamp",
          "type": "uint256"
        },
        {
          "internalType": "uint256",
          "name": "workedHours",
          "type": "uint256"
        }
      ],
      "stateMutability": "view",
      "type": "function"
    },
    {
      "inputs": [],
      "name": "checkIn",
      "outputs": [],
      "stateMutability": "nonpayable",
      "type": "function"
    },
    {
      "inputs": [
        {
          "internalType": "address",
          "name": "",
          "type": "address"
        }
      ],
      "name": "checkInTs",
      "outputs": [
        {
          "internalType": "uint256",
          "name": "",
          "type": "uint256"
        }
      ],
      "stateMutability": "view",
      "type": "function"
    },
    {
      "inputs": [],
      "name": "checkOut",
      "outputs": [],
      "stateMutability": "nonpayable",
      "type": "function"
    },
    {
      "inputs": [],
      "name": "contractBalance",
      "outputs": [
        {
          "internalType": "uint256",
          "name": "",
          "type": "uint256"
        }
      ],
      "stateMutability": "view",
      "type": "function"
    },
    {
      "inputs": [],
      "name": "deposit",
      "outputs": [],
      "stateMutability": "payable",
      "type": "function"
    },
    {
      "inputs": [
        {
          "internalType": "uint256",
          "name": "",
          "type": "uint256"
        }
      ],
      "name": "employeeList",
      "outputs": [
        {
          "internalType": "address",
          "name": "",
          "type": "address"
        }
      ],
      "stateMutability": "view",
      "type": "function"
    },
    {
      "inputs": [
        {
          "internalType": "address",
          "name": "",
          "type": "address"
        }
      ],
      "name": "employees",
      "outputs": [
        {
          "internalType": "string",
          "name": "name",
          "type": "string"
        },
        {
          "internalType": "uint256",
          "name": "hourlyRate",
          "type": "uint256"
        },
        {
          "internalType": "uint256",
          "name": "accrued",
          "type": "uint256"
        },
        {
          "internalType": "bool",
          "name": "exists",
          "type": "bool"
        }
      ],
      "stateMutability": "view",
      "type": "function"
    },
    {
      "inputs": [
        {
          "internalType": "address",
          "name": "_emp",
          "type": "address"
        },
        {
          "internalType": "uint256",
          "name": "start",
          "type": "uint256"
        },
        {
          "internalType": "uint256",
          "name": "limit",
          "type": "uint256"
        }
      ],
      "name": "getAttendance",
      "outputs": [
        {
          "components": [
            {
              "internalType": "uint256",
              "name": "timestamp",
              "type": "uint256"
            },
            {
              "internalType": "uint256",
              "name": "workedHours",
              "type": "uint256"
            }
          ],
          "internalType": "struct Payroll.Attendance[]",
          "name": "result",
          "type": "tuple[]"
        }
      ],
      "stateMutability": "view",
      "type": "function"
    },
    {
      "inputs": [
        {
          "internalType": "address",
          "name": "_emp",
          "type": "address"
        }
      ],
      "name": "getAttendanceCount",
      "outputs": [
        {
          "internalType": "uint256",
          "name": "",
          "type": "uint256"
        }
      ],
      "stateMutability": "view",
      "type": "function"
    },
    {
      "inputs": [],
      "name": "getEmployeeCount",
      "outputs": [
        {
          "internalType": "uint256",
          "name": "",
          "type": "uint256"
        }
      ],
      "stateMutability": "view",
      "type": "function"
    },
    {
      "inputs": [],
      "name": "getOwner",
      "outputs": [
        {
          "internalType": "address",
          "name": "",
          "type": "address"
        }
      ],
      "stateMutability": "view",
      "type": "function"
    },
    {
      "inputs": [],
      "name": "owner",
      "outputs": [
        {
          "internalType": "address",
          "name": "",
          "type": "address"
        }
      ],
      "stateMutability": "view",
      "type": "function"
    },
    {
      "inputs": [
        {
          "internalType": "uint256",
          "name": "start",
          "type": "uint256"
        },
        {
          "internalType": "uint256",
          "name": "limit",
          "type": "uint256"
        }
      ],
      "name": "payAll",
      "outputs": [],
      "stateMutability": "nonpayable",
      "type": "function"
    },
    {
      "inputs": [
        {
          "internalType": "address",
          "name": "_emp",
          "type": "address"
        }
      ],
      "name": "payEmployee",
      "outputs": [],
      "stateMutability": "nonpayable",
      "type": "function"
    },
    {
      "inputs": [
        {
          "internalType": "uint256",
          "name": "_workedHours",
          "type": "uint256"
        }
      ],
      "name": "recordWork",
      "outputs": [],
      "stateMutability": "nonpayable",
      "type": "function"
    },
    {
      "inputs": [
        {
          "internalType": "address",
          "name": "_addr",
          "type": "address"
        }
      ],
      "name": "removeEmployee",
      "outputs": [],
      "stateMutability": "nonpayable",
      "type": "function"
    },
    {
      "inputs": [],
      "name": "renounceOwnership",
      "outputs": [],
      "stateMutability": "nonpayable",
      "type": "function"
    },
    {
      "inputs": [
        {
          "internalType": "address",
          "name": "newOwner",
          "type": "address"
        }
      ],
      "name": "transferOwnership",
      "outputs": [],
      "stateMutability": "nonpayable",
      "type": "function"
    },
    {
      "inputs": [
        {
          "internalType": "address",
          "name": "_addr",
          "type": "address"
        },
        {
          "internalType": "uint256",
          "name": "_hourlyRate",
          "type": "uint256"
        }
      ],
      "name": "updateRate",
      "outputs": [],
      "stateMutability": "nonpayable",
      "type": "function"
    },
    {
      "inputs": [],
      "name": "withdraw",
      "outputs": [],
      "stateMutability": "nonpayable",
      "type": "function"
    },
    {
      "stateMutability": "payable",
      "type": "receive"
    }
  ],
  "bytecode": "0x608060405234801561001057600080fd5b5033600073ffffffffffffffffffffffffffffffffffffffff168173ffffffffffffffffffffffffffffffffffffffff16036100845760006040517f1e4fbdf700000000000000000000000000000000000000000000000000000000815260040161007b91906101a5565b60405180910390fd5b610093816100a060201b60201c565b50600180819055506101c0565b60008060009054906101000a900473ffffffffffffffffffffffffffffffffffffffff169050816000806101000a81548173ffffffffffffffffffffffffffffffffffffffff021916908373ffffffffffffffffffffffffffffffffffffffff1602179055508173ffffffffffffffffffffffffffffffffffffffff168173ffffffffffffffffffffffffffffffffffffffff167f8be0079c531659141344cd1fd0a4f28419497f9722a3daafe3b4186f6b6457e060405160405180910390a35050565b600073ffffffffffffffffffffffffffffffffffffffff82169050919050565b600061018f82610164565b9050919050565b61019f81610184565b82525050565b60006020820190506101ba6000830184610196565b92915050565b61374f806101cf6000396000f3fe60806040526004361061014f5760003560e01c80638b7afe2e116100b6578063d06789471161006f578063d0678947146104b2578063d0e30db0146104f2578063d108177a146104fc578063e0b5485914610525578063ea0c88b21461054e578063f2fde38b1461058b576101a4565b80638b7afe2e146103b45780638da5cb5b146103df578063b558d1ea1461040a578063c2a63e3b14610433578063c3b2d07a1461045e578063cba5751c1461049b576101a4565b80633ccfd60b116101085780633ccfd60b146102b75780633e0a87cb146102ce5780634384bf9d146102f75780635f4c6c5a14610334578063715018a614610372578063893d20e814610389576101a4565b806306364a8e146101a9578063183ff085146101e65780631f50ad16146101fd57806328f7aa36146102265780632d75e5261461024f57806331b40f781461028c576101a4565b366101a4573373ffffffffffffffffffffffffffffffffffffffff167f2da466a7b24304f47e87fa2e1e5a81b9831ce54fec19055ce277ca2f39ba42c43460405161019a919061257f565b60405180910390a2005b600080fd5b3480156101b557600080fd5b506101d060048036038101906101cb9190612602565b6105b4565b6040516101dd919061257f565b60405180910390f35b3480156101f257600080fd5b506101fb610600565b005b34801561020957600080fd5b50610224600480360381019061021f9190612602565b6107a5565b005b34801561023257600080fd5b5061024d600480360381019061024891906126c0565b6107c9565b005b34801561025b57600080fd5b5061027660048036038101906102719190612602565b610ac3565b604051610283919061257f565b60405180910390f35b34801561029857600080fd5b506102a1610adb565b6040516102ae91906127f2565b60405180910390f35b3480156102c357600080fd5b506102cc610b69565b005b3480156102da57600080fd5b506102f560048036038101906102f09190612814565b610e1b565b005b34801561030357600080fd5b5061031e60048036038101906103199190612841565b610fa4565b60405161032b9190612981565b60405180910390f35b34801561034057600080fd5b5061035b600480360381019061035691906129a3565b6111a1565b6040516103699291906129e3565b60405180910390f35b34801561037e57600080fd5b506103876111e2565b005b34801561039557600080fd5b5061039e6111f6565b6040516103ab9190612a1b565b60405180910390f35b3480156103c057600080fd5b506103c9611205565b6040516103d6919061257f565b60405180910390f35b3480156103eb57600080fd5b506103f461120d565b6040516104019190612a1b565b60405180910390f35b34801561041657600080fd5b50610431600480360381019061042c91906129a3565b611236565b005b34801561043f57600080fd5b5061044861135b565b604051610455919061257f565b60405180910390f35b34801561046a57600080fd5b5061048560048036038101906104809190612814565b611368565b6040516104929190612a1b565b60405180910390f35b3480156104a757600080fd5b506104b06113a7565b005b3480156104be57600080fd5b506104d960048036038101906104d49190612602565b61160a565b6040516104e99493929190612ae1565b60405180910390f35b6104fa6116cf565b005b34801561050857600080fd5b50610523600480360381019061051e9190612602565b611762565b005b34801561053157600080fd5b5061054c60048036038101906105479190612b2d565b611a69565b005b34801561055a57600080fd5b5061057560048036038101906105709190612602565b611e2c565b604051610582919061257f565b60405180910390f35b34801561059757600080fd5b506105b260048036038101906105ad9190612602565b611e78565b005b6000600460008373ffffffffffffffffffffffffffffffffffffffff1673ffffffffffffffffffffffffffffffffffffffff168152602001908152602001600020805490509050919050565b600360003373ffffffffffffffffffffffffffffffffffffffff1673ffffffffffffffffffffffffffffffffffffffff16815260200190815260200160002060030160009054906101000a900460ff1661068f576040517f08c379a000000000000000000000000000000000000000000000000000000000815260040161068690612bb9565b60405180910390fd5b6000600560003373ffffffffffffffffffffffffffffffffffffffff1673ffffffffffffffffffffffffffffffffffffffff1681526020019081526020016000205414610711576040517f08c379a000000000000000000000000000000000000000000000000000000000815260040161070890612c25565b60405180910390fd5b42600560003373ffffffffffffffffffffffffffffffffffffffff1673ffffffffffffffffffffffffffffffffffffffff168152602001908152602001600020819055503373ffffffffffffffffffffffffffffffffffffffff167fdddb6e14f7f2101397a6526aab95e964de7f1f44ed06aa47a1c9a0e6b99244564260405161079b919061257f565b60405180910390a2565b6107ad611efe565b6107b5611f85565b6107be81611fcb565b6107c661226e565b50565b6107d1611efe565b600073ffffffffffffffffffffffffffffffffffffffff168473ffffffffffffffffffffffffffffffffffffffff1603610840576040517f08c379a000000000000000000000000000000000000000000000000000000000815260040161083790612c91565b60405180910390fd5b600360008573ffffffffffffffffffffffffffffffffffffffff1673ffffffffffffffffffffffffffffffffffffffff16815260200190815260200160002060030160009054906101000a900460ff16156108d0576040517f08c379a00000000000000000000000000000000000000000000000000000000081526004016108c790612cfd565b60405180910390fd5b60008111610913576040517f08c379a000000000000000000000000000000000000000000000000000000000815260040161090a90612d69565b60405180910390fd5b604051806080016040528084848080601f016020809104026020016040519081016040528093929190818152602001838380828437600081840152601f19601f8201169050808301925050505050505081526020018281526020016000815260200160011515815250600360008673ffffffffffffffffffffffffffffffffffffffff1673ffffffffffffffffffffffffffffffffffffffff16815260200190815260200160002060008201518160000190816109d09190612fc4565b50602082015181600101556040820151816002015560608201518160030160006101000a81548160ff0219169083151502179055509050506002849080600181540180825580915050600190039060005260206000200160009091909190916101000a81548173ffffffffffffffffffffffffffffffffffffffff021916908373ffffffffffffffffffffffffffffffffffffffff1602179055508373ffffffffffffffffffffffffffffffffffffffff167fee0cb94d5bca51c650dbd4f3c67a89042ab668fe15fc004da654808bea441067848484604051610ab5939291906130d2565b60405180910390a250505050565b60056020528060005260406000206000915090505481565b60606002805480602002602001604051908101604052809291908181526020018280548015610b5f57602002820191906000526020600020905b8160009054906101000a900473ffffffffffffffffffffffffffffffffffffffff1673ffffffffffffffffffffffffffffffffffffffff1681526020019060010190808311610b15575b5050505050905090565b610b71611f85565b600360003373ffffffffffffffffffffffffffffffffffffffff1673ffffffffffffffffffffffffffffffffffffffff16815260200190815260200160002060030160009054906101000a900460ff16610c00576040517f08c379a0000000000000000000000000000000000000000000000000000000008152600401610bf790612bb9565b60405180910390fd5b6000600360003373ffffffffffffffffffffffffffffffffffffffff1673ffffffffffffffffffffffffffffffffffffffff16815260200190815260200160002060020154905060008111610c8a576040517f08c379a0000000000000000000000000000000000000000000000000000000008152600401610c8190613150565b60405180910390fd5b80471015610ccd576040517f08c379a0000000000000000000000000000000000000000000000000000000008152600401610cc4906131bc565b60405180910390fd5b6000600360003373ffffffffffffffffffffffffffffffffffffffff1673ffffffffffffffffffffffffffffffffffffffff1681526020019081526020016000206002018190555060003373ffffffffffffffffffffffffffffffffffffffff1682604051610d3b9061320d565b60006040518083038185875af1925050503d8060008114610d78576040519150601f19603f3d011682016040523d82523d6000602084013e610d7d565b606091505b5050905080610dc1576040517f08c379a0000000000000000000000000000000000000000000000000000000008152600401610db89061326e565b60405180910390fd5b3373ffffffffffffffffffffffffffffffffffffffff167f7084f5476618d8e60b11ef0d7d3f06914655adb8793e28ff7f018d4c76d505d583604051610e07919061257f565b60405180910390a25050610e1961226e565b565b600360003373ffffffffffffffffffffffffffffffffffffffff1673ffffffffffffffffffffffffffffffffffffffff16815260200190815260200160002060030160009054906101000a900460ff16610eaa576040517f08c379a0000000000000000000000000000000000000000000000000000000008152600401610ea190612bb9565b60405180910390fd5b600081118015610ebb575060188111155b610efa576040517f08c379a0000000000000000000000000000000000000000000000000000000008152600401610ef1906132da565b60405180910390fd5b610f043382612277565b3373ffffffffffffffffffffffffffffffffffffffff167f0768a0b3577d48eb9ea3d2379e81e3b478f594403ec3537d3e7260c9aa1b4b5182600360003373ffffffffffffffffffffffffffffffffffffffff1673ffffffffffffffffffffffffffffffffffffffff1681526020019081526020016000206001015484610f8b9190613329565b604051610f999291906129e3565b60405180910390a250565b60606000600460008673ffffffffffffffffffffffffffffffffffffffff1673ffffffffffffffffffffffffffffffffffffffff168152602001908152602001600020805480602002602001604051908101604052809291908181526020016000905b8282101561104d57838290600052602060002090600202016040518060400160405290816000820154815260200160018201548152505081526020019060010190611007565b505050509050805184106110b857600067ffffffffffffffff81111561107657611075612d89565b5b6040519080825280602002602001820160405280156110af57816020015b61109c61254c565b8152602001906001900390816110945790505b5091505061119a565b600083856110c6919061336b565b905081518111156110d657815190505b84816110e2919061339f565b67ffffffffffffffff8111156110fb576110fa612d89565b5b60405190808252806020026020018201604052801561113457816020015b61112161254c565b8152602001906001900390816111195790505b50925060008590505b8181101561119657828181518110611158576111576133d3565b5b602002602001015184878361116d919061339f565b8151811061117e5761117d6133d3565b5b6020026020010181905250808060010191505061113d565b5050505b9392505050565b600460205281600052604060002081815481106111bd57600080fd5b9060005260206000209060020201600091509150508060000154908060010154905082565b6111ea611efe565b6111f46000612480565b565b600061120061120d565b905090565b600047905090565b60008060009054906101000a900473ffffffffffffffffffffffffffffffffffffffff16905090565b61123e611efe565b600360008373ffffffffffffffffffffffffffffffffffffffff1673ffffffffffffffffffffffffffffffffffffffff16815260200190815260200160002060030160009054906101000a900460ff166112cd576040517f08c379a00000000000000000000000000000000000000000000000000000000081526004016112c490612bb9565b60405180910390fd5b60008111611310576040517f08c379a000000000000000000000000000000000000000000000000000000000815260040161130790612d69565b60405180910390fd5b80600360008473ffffffffffffffffffffffffffffffffffffffff1673ffffffffffffffffffffffffffffffffffffffff168152602001908152602001600020600101819055505050565b6000600280549050905090565b6002818154811061137857600080fd5b906000526020600020016000915054906101000a900473ffffffffffffffffffffffffffffffffffffffff1681565b600360003373ffffffffffffffffffffffffffffffffffffffff1673ffffffffffffffffffffffffffffffffffffffff16815260200190815260200160002060030160009054906101000a900460ff16611436576040517f08c379a000000000000000000000000000000000000000000000000000000000815260040161142d90612bb9565b60405180910390fd5b6000600560003373ffffffffffffffffffffffffffffffffffffffff1673ffffffffffffffffffffffffffffffffffffffff168152602001908152602001600020549050600081036114bd576040517f08c379a00000000000000000000000000000000000000000000000000000000081526004016114b49061344e565b60405180910390fd5b600081426114cb919061339f565b90506000610e10826114dd919061349d565b905060008111611522576040517f08c379a00000000000000000000000000000000000000000000000000000000081526004016115199061351a565b60405180910390fd5b6018811115611566576040517f08c379a000000000000000000000000000000000000000000000000000000000815260040161155d90613586565b60405180910390fd5b6000600560003373ffffffffffffffffffffffffffffffffffffffff1673ffffffffffffffffffffffffffffffffffffffff168152602001908152602001600020819055506115b53382612277565b3373ffffffffffffffffffffffffffffffffffffffff167f21c3a29faec2af0d716e792eacc877f979d8920b2075d1f9099b87df5137736642836040516115fd9291906129e3565b60405180910390a2505050565b600360205280600052604060002060009150905080600001805461162d90612de7565b80601f016020809104026020016040519081016040528092919081815260200182805461165990612de7565b80156116a65780601f1061167b576101008083540402835291602001916116a6565b820191906000526020600020905b81548152906001019060200180831161168957829003601f168201915b5050505050908060010154908060020154908060030160009054906101000a900460ff16905084565b60003411611712576040517f08c379a0000000000000000000000000000000000000000000000000000000008152600401611709906135f2565b60405180910390fd5b3373ffffffffffffffffffffffffffffffffffffffff167f2da466a7b24304f47e87fa2e1e5a81b9831ce54fec19055ce277ca2f39ba42c434604051611758919061257f565b60405180910390a2565b61176a611efe565b600360008273ffffffffffffffffffffffffffffffffffffffff1673ffffffffffffffffffffffffffffffffffffffff16815260200190815260200160002060030160009054906101000a900460ff166117f9576040517f08c379a00000000000000000000000000000000000000000000000000000000081526004016117f090612bb9565b60405180910390fd5b60005b60028054905081101561197f578173ffffffffffffffffffffffffffffffffffffffff1660028281548110611834576118336133d3565b5b9060005260206000200160009054906101000a900473ffffffffffffffffffffffffffffffffffffffff1673ffffffffffffffffffffffffffffffffffffffff1603611972576002600160028054905061188e919061339f565b8154811061189f5761189e6133d3565b5b9060005260206000200160009054906101000a900473ffffffffffffffffffffffffffffffffffffffff16600282815481106118de576118dd6133d3565b5b9060005260206000200160006101000a81548173ffffffffffffffffffffffffffffffffffffffff021916908373ffffffffffffffffffffffffffffffffffffffff160217905550600280548061193857611937613612565b5b6001900381819060005260206000200160006101000a81549073ffffffffffffffffffffffffffffffffffffffff0219169055905561197f565b80806001019150506117fc565b506000600360008373ffffffffffffffffffffffffffffffffffffffff1673ffffffffffffffffffffffffffffffffffffffff16815260200190815260200160002060030160006101000a81548160ff0219169083151502179055506000600360008373ffffffffffffffffffffffffffffffffffffffff1673ffffffffffffffffffffffffffffffffffffffff168152602001908152602001600020600201819055508073ffffffffffffffffffffffffffffffffffffffff167fabae6e64cb4315875c29d42347a312f5e9fce4ab564e9722b43dd78d0751135a60405160405180910390a250565b611a71611efe565b611a79611f85565b60008111611abc576040517f08c379a0000000000000000000000000000000000000000000000000000000008152600401611ab39061368d565b60405180910390fd5b60008183611aca919061336b565b9050600280549050811115611ae25760028054905090505b6000808490505b82811015611ddc57600060028281548110611b0757611b066133d3565b5b9060005260206000200160009054906101000a900473ffffffffffffffffffffffffffffffffffffffff169050600360008273ffffffffffffffffffffffffffffffffffffffff1673ffffffffffffffffffffffffffffffffffffffff16815260200190815260200160002060030160009054906101000a900460ff168015611bd257506000600360008373ffffffffffffffffffffffffffffffffffffffff1673ffffffffffffffffffffffffffffffffffffffff16815260200190815260200160002060020154115b15611dce57600360008273ffffffffffffffffffffffffffffffffffffffff1673ffffffffffffffffffffffffffffffffffffffff168152602001908152602001600020600201544710611dcd576000600360008373ffffffffffffffffffffffffffffffffffffffff1673ffffffffffffffffffffffffffffffffffffffff1681526020019081526020016000206002015490506000600360008473ffffffffffffffffffffffffffffffffffffffff1673ffffffffffffffffffffffffffffffffffffffff1681526020019081526020016000206002018190555060008273ffffffffffffffffffffffffffffffffffffffff1682604051611cd59061320d565b60006040518083038185875af1925050503d8060008114611d12576040519150601f19603f3d011682016040523d82523d6000602084013e611d17565b606091505b505090508015611d82578273ffffffffffffffffffffffffffffffffffffffff167fc0ebfa40c6c89654e46d7c5b0b0c1f8b5d1c65d6612894126714a7b1d6db9a3883604051611d67919061257f565b60405180910390a28185611d7b919061336b565b9450611dca565b81600360008573ffffffffffffffffffffffffffffffffffffffff1673ffffffffffffffffffffffffffffffffffffffff168152602001908152602001600020600201819055505b50505b5b508080600101915050611ae9565b506000811115611e1e577f0383136579f4be06757f1bfb03da8502c5eba35c237e4a23742060c571361a2081604051611e15919061257f565b60405180910390a15b5050611e2861226e565b5050565b6000600360008373ffffffffffffffffffffffffffffffffffffffff1673ffffffffffffffffffffffffffffffffffffffff168152602001908152602001600020600201549050919050565b611e80611efe565b600073ffffffffffffffffffffffffffffffffffffffff168173ffffffffffffffffffffffffffffffffffffffff1603611ef25760006040517f1e4fbdf7000000000000000000000000000000000000000000000000000000008152600401611ee99190612a1b565b60405180910390fd5b611efb81612480565b50565b611f06612544565b73ffffffffffffffffffffffffffffffffffffffff16611f2461120d565b73ffffffffffffffffffffffffffffffffffffffff1614611f8357611f47612544565b6040517f118cdaa7000000000000000000000000000000000000000000000000000000008152600401611f7a9190612a1b565b60405180910390fd5b565b600260015403611fc1576040517f3ee5aeb500000000000000000000000000000000000000000000000000000000815260040160405180910390fd5b6002600181905550565b600360008273ffffffffffffffffffffffffffffffffffffffff1673ffffffffffffffffffffffffffffffffffffffff16815260200190815260200160002060030160009054906101000a900460ff1661205a576040517f08c379a000000000000000000000000000000000000000000000000000000000815260040161205190612bb9565b60405180910390fd5b6000600360008373ffffffffffffffffffffffffffffffffffffffff1673ffffffffffffffffffffffffffffffffffffffff168152602001908152602001600020600201549050600081116120e4576040517f08c379a00000000000000000000000000000000000000000000000000000000081526004016120db906136f9565b60405180910390fd5b80471015612127576040517f08c379a000000000000000000000000000000000000000000000000000000000815260040161211e906131bc565b60405180910390fd5b6000600360008473ffffffffffffffffffffffffffffffffffffffff1673ffffffffffffffffffffffffffffffffffffffff1681526020019081526020016000206002018190555060008273ffffffffffffffffffffffffffffffffffffffff16826040516121959061320d565b60006040518083038185875af1925050503d80600081146121d2576040519150601f19603f3d011682016040523d82523d6000602084013e6121d7565b606091505b505090508061221b576040517f08c379a00000000000000000000000000000000000000000000000000000000081526004016122129061326e565b60405180910390fd5b8273ffffffffffffffffffffffffffffffffffffffff167fc0ebfa40c6c89654e46d7c5b0b0c1f8b5d1c65d6612894126714a7b1d6db9a3883604051612261919061257f565b60405180910390a2505050565b60018081905550565b6000600360008473ffffffffffffffffffffffffffffffffffffffff1673ffffffffffffffffffffffffffffffffffffffff16815260200190815260200160002060010154826122c79190613329565b905080600360008573ffffffffffffffffffffffffffffffffffffffff1673ffffffffffffffffffffffffffffffffffffffff168152602001908152602001600020600201600082825461231b919061336b565b92505081905550600460008473ffffffffffffffffffffffffffffffffffffffff1673ffffffffffffffffffffffffffffffffffffffff168152602001908152602001600020604051806040016040528042815260200184815250908060018154018082558091505060019003906000526020600020906002020160009091909190915060008201518160000155602082015181600101555050600360008473ffffffffffffffffffffffffffffffffffffffff1673ffffffffffffffffffffffffffffffffffffffff1681526020019081526020016000206002015447101561247b577fd04385117ae32ff84477d83cb5ebe076fc9f916c582b841fd0b0dbf0c4021dee600360008573ffffffffffffffffffffffffffffffffffffffff1673ffffffffffffffffffffffffffffffffffffffff16815260200190815260200160002060020154476040516124729291906129e3565b60405180910390a15b505050565b60008060009054906101000a900473ffffffffffffffffffffffffffffffffffffffff169050816000806101000a81548173ffffffffffffffffffffffffffffffffffffffff021916908373ffffffffffffffffffffffffffffffffffffffff1602179055508173ffffffffffffffffffffffffffffffffffffffff168173ffffffffffffffffffffffffffffffffffffffff167f8be0079c531659141344cd1fd0a4f28419497f9722a3daafe3b4186f6b6457e060405160405180910390a35050565b600033905090565b604051806040016040528060008152602001600081525090565b6000819050919050565b61257981612566565b82525050565b60006020820190506125946000830184612570565b92915050565b600080fd5b600080fd5b600073ffffffffffffffffffffffffffffffffffffffff82169050919050565b60006125cf826125a4565b9050919050565b6125df816125c4565b81146125ea57600080fd5b50565b6000813590506125fc816125d6565b92915050565b6000602082840312156126185761261761259a565b5b6000612626848285016125ed565b91505092915050565b600080fd5b600080fd5b600080fd5b60008083601f8401126126545761265361262f565b5b8235905067ffffffffffffffff81111561267157612670612634565b5b60208301915083600182028301111561268d5761268c612639565b5b9250929050565b61269d81612566565b81146126a857600080fd5b50565b6000813590506126ba81612694565b92915050565b600080600080606085870312156126da576126d961259a565b5b60006126e8878288016125ed565b945050602085013567ffffffffffffffff8111156127095761270861259f565b5b6127158782880161263e565b93509350506040612728878288016126ab565b91505092959194509250565b600081519050919050565b600082825260208201905092915050565b6000819050602082019050919050565b612769816125c4565b82525050565b600061277b8383612760565b60208301905092915050565b6000602082019050919050565b600061279f82612734565b6127a9818561273f565b93506127b483612750565b8060005b838110156127e55781516127cc888261276f565b97506127d783612787565b9250506001810190506127b8565b5085935050505092915050565b6000602082019050818103600083015261280c8184612794565b905092915050565b60006020828403121561282a5761282961259a565b5b6000612838848285016126ab565b91505092915050565b60008060006060848603121561285a5761285961259a565b5b6000612868868287016125ed565b9350506020612879868287016126ab565b925050604061288a868287016126ab565b9150509250925092565b600081519050919050565b600082825260208201905092915050565b6000819050602082019050919050565b6128c981612566565b82525050565b6040820160008201516128e560008501826128c0565b5060208201516128f860208501826128c0565b50505050565b600061290a83836128cf565b60408301905092915050565b6000602082019050919050565b600061292e82612894565b612938818561289f565b9350612943836128b0565b8060005b8381101561297457815161295b88826128fe565b975061296683612916565b925050600181019050612947565b5085935050505092915050565b6000602082019050818103600083015261299b8184612923565b905092915050565b600080604083850312156129ba576129b961259a565b5b60006129c8858286016125ed565b92505060206129d9858286016126ab565b9150509250929050565b60006040820190506129f86000830185612570565b612a056020830184612570565b9392505050565b612a15816125c4565b82525050565b6000602082019050612a306000830184612a0c565b92915050565b600081519050919050565b600082825260208201905092915050565b60005b83811015612a70578082015181840152602081019050612a55565b60008484015250505050565b6000601f19601f8301169050919050565b6000612a9882612a36565b612aa28185612a41565b9350612ab2818560208601612a52565b612abb81612a7c565b840191505092915050565b60008115159050919050565b612adb81612ac6565b82525050565b60006080820190508181036000830152612afb8187612a8d565b9050612b0a6020830186612570565b612b176040830185612570565b612b246060830184612ad2565b95945050505050565b60008060408385031215612b4457612b4361259a565b5b6000612b52858286016126ab565b9250506020612b63858286016126ab565b9150509250929050565b7f4e6f7420656d706c6f7965650000000000000000000000000000000000000000600082015250565b6000612ba3600c83612a41565b9150612bae82612b6d565b602082019050919050565b60006020820190508181036000830152612bd281612b96565b9050919050565b7f416c726561647920636865636b656420696e0000000000000000000000000000600082015250565b6000612c0f601283612a41565b9150612c1a82612bd9565b602082019050919050565b60006020820190508181036000830152612c3e81612c02565b9050919050565b7f496e76616c696420616464726573730000000000000000000000000000000000600082015250565b6000612c7b600f83612a41565b9150612c8682612c45565b602082019050919050565b60006020820190508181036000830152612caa81612c6e565b9050919050565b7f456d706c6f796565206578697374730000000000000000000000000000000000600082015250565b6000612ce7600f83612a41565b9150612cf282612cb1565b602082019050919050565b60006020820190508181036000830152612d1681612cda565b9050919050565b7f52617465203e2030000000000000000000000000000000000000000000000000600082015250565b6000612d53600883612a41565b9150612d5e82612d1d565b602082019050919050565b60006020820190508181036000830152612d8281612d46565b9050919050565b7f4e487b7100000000000000000000000000000000000000000000000000000000600052604160045260246000fd5b7f4e487b7100000000000000000000000000000000000000000000000000000000600052602260045260246000fd5b60006002820490506001821680612dff57607f821691505b602082108103612e1257612e11612db8565b5b50919050565b60008190508160005260206000209050919050565b60006020601f8301049050919050565b600082821b905092915050565b600060088302612e7a7fffffffffffffffffffffffffffffffffffffffffffffffffffffffffffffffff82612e3d565b612e848683612e3d565b95508019841693508086168417925050509392505050565b6000819050919050565b6000612ec1612ebc612eb784612566565b612e9c565b612566565b9050919050565b6000819050919050565b612edb83612ea6565b612eef612ee782612ec8565b848454612e4a565b825550505050565b600090565b612f04612ef7565b612f0f818484612ed2565b505050565b5b81811015612f3357612f28600082612efc565b600181019050612f15565b5050565b601f821115612f7857612f4981612e18565b612f5284612e2d565b81016020851015612f61578190505b612f75612f6d85612e2d565b830182612f14565b50505b505050565b600082821c905092915050565b6000612f9b60001984600802612f7d565b1980831691505092915050565b6000612fb48383612f8a565b9150826002028217905092915050565b612fcd82612a36565b67ffffffffffffffff811115612fe657612fe5612d89565b5b612ff08254612de7565b612ffb828285612f37565b600060209050601f83116001811461302e576000841561301c578287015190505b6130268582612fa8565b86555061308e565b601f19841661303c86612e18565b60005b828110156130645784890151825560018201915060208501945060208101905061303f565b86831015613081578489015161307d601f891682612f8a565b8355505b6001600288020188555050505b505050505050565b82818337600083830152505050565b60006130b18385612a41565b93506130be838584613096565b6130c783612a7c565b840190509392505050565b600060408201905081810360008301526130ed8185876130a5565b90506130fc6020830184612570565b949350505050565b7f4e6f7468696e6720746f20776974686472617700000000000000000000000000600082015250565b600061313a601383612a41565b915061314582613104565b602082019050919050565b600060208201905081810360008301526131698161312d565b9050919050565b7f496e73756666696369656e742066756e64730000000000000000000000000000600082015250565b60006131a6601283612a41565b91506131b182613170565b602082019050919050565b600060208201905081810360008301526131d581613199565b9050919050565b600081905092915050565b50565b60006131f76000836131dc565b9150613202826131e7565b600082019050919050565b6000613218826131ea565b9150819050919050565b7f5472616e73666572206661696c65640000000000000000000000000000000000600082015250565b6000613258600f83612a41565b915061326382613222565b602082019050919050565b600060208201905081810360008301526132878161324b565b9050919050565b7f496e76616c696420686f75727300000000000000000000000000000000000000600082015250565b60006132c4600d83612a41565b91506132cf8261328e565b602082019050919050565b600060208201905081810360008301526132f3816132b7565b9050919050565b7f4e487b7100000000000000000000000000000000000000000000000000000000600052601160045260246000fd5b600061333482612566565b915061333f83612566565b925082820261334d81612566565b91508282048414831517613364576133636132fa565b5b5092915050565b600061337682612566565b915061338183612566565b9250828201905080821115613399576133986132fa565b5b92915050565b60006133aa82612566565b91506133b583612566565b92508282039050818111156133cd576133cc6132fa565b5b92915050565b7f4e487b7100000000000000000000000000000000000000000000000000000000600052603260045260246000fd5b7f4e6f7420636865636b656420696e000000000000000000000000000000000000600082015250565b6000613438600e83612a41565b915061344382613402565b602082019050919050565b600060208201905081810360008301526134678161342b565b9050919050565b7f4e487b7100000000000000000000000000000000000000000000000000000000600052601260045260246000fd5b60006134a882612566565b91506134b383612566565b9250826134c3576134c261346e565b5b828204905092915050565b7f4c657373207468616e203120686f757200000000000000000000000000000000600082015250565b6000613504601083612a41565b915061350f826134ce565b602082019050919050565b60006020820190508181036000830152613533816134f7565b9050919050565b7f4d6178203234682f646179000000000000000000000000000000000000000000600082015250565b6000613570600b83612a41565b915061357b8261353a565b602082019050919050565b6000602082019050818103600083015261359f81613563565b9050919050565b7f4d7573742073656e642045544800000000000000000000000000000000000000600082015250565b60006135dc600d83612a41565b91506135e7826135a6565b602082019050919050565b6000602082019050818103600083015261360b816135cf565b9050919050565b7f4e487b7100000000000000000000000000000000000000000000000000000000600052603160045260246000fd5b7f4c696d6974203e20300000000000000000000000000000000000000000000000600082015250565b6000613677600983612a41565b915061368282613641565b602082019050919050565b600060208201905081810360008301526136a68161366a565b9050919050565b7f4e6f7468696e6720746f20706179000000000000000000000000000000000000600082015250565b60006136e3600e83612a41565b91506136ee826136ad565b602082019050919050565b60006020820190508181036000830152613712816136d6565b905091905056fea2646970667358221220026dbdfcf1406c6cc9eaa72957d8d69521da7d76fcb83dbe39eddce764bceb0364736f6c634300081b0033",
  "linkReferences": {},
  "deployedLinkReferences": {}
}